:020000040800F2
:10000000281300208901000813160008EF140008C7
:1000100011160008F3020008F51C0008000000009B
:100020000000000000000000000000004D18000863
:100030005503000800000000731600084F18000860
:10004000A3010008A3010008A3010008A301000800
:10005000A3010008A3010008A3010008A3010008F0
:10006000A3010008A3010008A3010008A3010008E0
:10007000A3010008A3010008A3010008A3010008D0
:10008000A3010008A3010008A3010008A3010008C0
:10009000A3010008A3010008A3010008A3010008B0
:1000A000A3010008A3010008A3010008A3010008A0
:1000B000A3010008A3010008A3010008A301000890
:1000C000A3010008A3010008A3010008A301000880
:1000D000A3010008E91C0008A3010008A30100080F
:1000E000A3010008A3010008A301000800F002F822
:1000F00000F03AF80AA090E8000C82448344AAF188
:100100000107DA4501D100F02FF8AFF2090EBAE885
:100110000F0013F0010F18BFFB1A43F0010318473B
:10012000D0400000F0400000103A24BF78C878C1E9
:10013000FAD8520724BF30C830C144BF04680C60ED
:10014000704700000023002400250026103A28BF35
:1001500078C1FBD8520728BF30C148BF0B60704739
:100160001FB51FBD10B510BD00F08EF81146FFF78A
:10017000F7FF02F0B5FB00F0ACF803B4FFF7F2FFB5
:1001800003BC00F0AFF80000094880470948004769
:10019000FEE7FEE7FEE7FEE7FEE7FEE7FEE7FEE737
:1001A000FEE7FEE704480549054A064B7047000094
:1001B000B1180008ED0000082803002028130020D3
:1001C000280B0020280B00204FF000020429C0F06B
:1001D000128010F0030C00F01B80CCF1040CBCF179
:1001E000020F18BF00F8012BA8BF20F8022BA1EBCB
:1001F0000C0100F00DB85FEAC17C24BF00F8012BB0
:1002000000F8012B48BF00F8012B70474FF00002A7
:1002100000B5134694469646203922BFA0E80C50FC
:10022000A0E80C50B1F12001BFF4F7AF090728BFD7
:10023000A0E80C5048BF0CC05DF804EB890028BF53
:1002400040F8042B08BF704748BF20F8022B11F07C
:10025000804F18BF00F8012B7047704770477047F8
:1002600010B500F009F8006810BD10B5044600F0A4
:1002700003F8046010BD000000487047C802002069
:1002800000487047C80200207546FFF7F9FFAE46E8
:1002900005006946534620F00700854618B020B592
:1002A000FFF780FFBDE820404FF000064FF0000749
:1002B0004FF000084FF0000B21F00701AC46ACE80E
:1002C000C009ACE8C009ACE8C009ACE8C0098D467B
:1002D000704710B50446AFF300802046BDE81040DB
:1002E000FFF74BBF01491820ABBEFEE72600020016
:1002F0007047FEE72DE9F0410446C06B4FF400055E
:10030000A84201DA80F00040216E03F055FC1FD9AD
:10031000E06BA84201DA80F00040E16D03F04CFD93
:1003200001D2002013E0E06D216E064603F080FD4F
:100330000746E06BA84201DA80F00040314603F046
:100340006CFD394603F02AFBE16903F069FCE061CA
:10035000BDE8F081704772B6FEE710B590F8211045
:100360000022022905D00421816380F82020012089
:1003700010BD01680B6823F00E030B6001680B6869
:1003800023F001030B6090F84030C46B012101FAA7
:1003900003F3636080F8211080F82020104610BD20
:1003A00010B590F821100024022903D004218163A4
:1003B00001243DE001680A6822F00E020A6001682B
:1003C0000A6822F001020A601A4A0168914201D1CA
:1003D000012121E0174A1432914201D110211BE082
:1003E000144A2832914201D1891515E0114A3C3254
:1003F000914201D189140FE00E4A5032914202D14C
:100400004FF4803108E00B4A6432914202D14FF43C
:10041000801101E04FF08071064A083A51600121D5
:1004200080F82110002180F82010416B01B188472D
:10043000204610BD0800024070B5044600F0FEF8EA
:100440000546601C02D004480078044400F0F6F829
:10045000401BA042FAD370BDE40000202DE9F84F04
:10046000DFF8B891002409F1040A0AF1040B2346CD
:100470000F270BF1040EC9E00125A5402A40AA422E
:100480007DD1674ED1F804C0ACEB0608B44532D03C
:1004900014DCBCF1030F3AD009DCBCF1000F2AD008
:1004A000BCF1010F1CD0BCF1020F31D11DE0BCF139
:1004B000110F17D0BCF1120F2AD119E0B8F5881F1F
:1004C00019D006DCB8F5803F15D0B8F5801F1FD1D4
:1004D00011E0B8F5001F0ED0B8F5041F18D10AE0DE
:1004E000CB6815E0CB681B1D12E0CB6808330FE02A
:1004F000CB680C330CE08B682BB1012B4FF0080359
:1005000003D0456104E0042302E0056100E000231C
:10051000FF2A01D8064601E000F104064FEA8405EF
:1005200001D9A5F12005D6F8008007FA05FC28EAD4
:100530000C0803FA05F548EA0508C6F800804D687E
:10054000ED0062D5374DAE6946F00106AE61AD698A
:1005500024F0030605F001050095334D06EB050C6C
:10056000DCF80850A607360F07FA06F825EA080552
:10057000DFF8B880404503D14FF0000817E044E0B1
:10058000DFF8AC80404502D14FF001080FE0DFF802
:10059000A480404502D14FF0020808E0DFF89880BF
:1005A000404502D14FF0030801E04FF0040808FA7B
:1005B00006F848EA0508CCF808804D68D9F80060CC
:1005C000ED034D4601D5164300E096432E604D687D
:1005D000DAF80060AD03554601D5164300E09643B6
:1005E0002E604D68DBF80060ED025D4601D51643D4
:1005F00000E096432E604D68DEF80060AD0275465F
:1006000001D5164300E096432E60641C0D682A460F
:10061000E5407FF431AFBDE8F88F000000040140F1
:1006200000001110001002400000014000080140CD
:10063000000C014000100140001401400148806896
:1006400070470000E40000200248816802781144ED
:1006500081607047E4000020074810B5016841F050
:1006600010010160032000F075F80F2000F006F87B
:1006700000F024F8002010BD0020024070B50D4DA0
:1006800004464FF47A712878B1FBF0F00A49096802
:10069000B1FBF0F000F0ECFA48B9102C07D20022C0
:1006A0002146501E00F036F800206C6070BD01201D
:1006B00070BD0000E4000020F00000200C4808B5E8
:1006C000816941F001018161816901F001010091BD
:1006D000C16941F08051C161C06900F08050009053
:1006E0000448416821F0E06141F00071416008BDBB
:1006F0000010024000000140002809DB00F01F024A
:10070000012191404009800000F1E020C0F8001173
:1007100070470000F0B40E4B1B680C46C3F3022375
:10072000C3F10705042D00D90425191D072901D29D
:10073000002300E0DB1E012606FA05F1491E2140D8
:1007400099409E40761E16403143F0BC01F0E7BA56
:100750000CED00E0064900F0070208684FF6FF03C1
:10076000184040EA0220034A104308607047000026
:100770000CED00E00000FA052DE9F0470F460500FA
:1007800061D0434E306800F00700B84209D23068AB
:1007900020F0070038433060306800F00700B842AE
:1007A00051D128683B4C810712D5400703D56068BA
:1007B00040F4E06060602878000703D5606840F48A
:1007C000605060606068A96820F0F00008436060D5
:1007D0002878C00728D06868012810D0216802282E
:1007E00010D0890700292EDA616821F00301014346
:1007F0006160FFF723FF804641F288390DE02168F0
:100800008903EFE78901EDE7FFF718FFA0EB080187
:10081000494502D90320BDE8F0876068696800F0A7
:100820000C00B0EB810FEFD1306800F00700B84248
:100830000BD9306820F0070038433060306800F092
:100840000700B84201D00120E5E72878400705D528
:100850006068E96820F4E060084360602878000779
:1008600006D56068296920F4605040EAC1006060E4
:1008700000F038F86168084AC1F30311515CC840C0
:100880000649086006480068FFF7F8FE0020C2E746
:1008900000200240001002400A400008F000002042
:1008A000E80000200448054900684968044AC1F38B
:1008B0000221515CC8407047F00000200010024047
:1008C0001A4000080448054900684968044AC1F311
:1008D000C221515CC8407047F00000200010024067
:1008E0001A40000812A185B00FC98DE80F0014A0AE
:1008F000144A006804905168134801F00C03042B5B
:1009000010D0082B0ED1C1F38343C9031DF8030097
:100910000AD5516804AAC1F34041515C0A4A5043C8
:10092000B0FBF1F005B0704708494843FAE7000012
:1009300002030405060708090A0B0C0D0E0F101020
:10094000010200000010024000127A0000093D0080
:100950002DE9F84F040070D02078C04DC00749D071
:100960006868C0F38100012807D06868C0F381007F
:10097000022809D16868C00306D52868800339D5E4
:1009800060680028E7D035E06068B0F5803F0BD0A4
:1009900010B1B0F5A02F11D0286820F48030286065
:1009A000286820F4802002E0286840F48030286025
:1009B000606890B1FFF742FE06460AE0286840F4FE
:1009C00080202860F0E700BFFFF738FE801B642816
:1009D00073D828688003F7D50CE0FFF72FFE064692
:1009E00005E000BFFFF72AFE801B6428F0D82868C6
:1009F0008003F7D420789A4E80074FF001094FF01A
:100A0000000839D5686810F00C0F07D06868C0F38B
:100A10008100022809D16868C00306D428688007CD
:100A200014D52069012808D110E02069B0B1C6F8BA
:100A30000090FFF703FE074605E00AE1FFF7FEFD21
:100A4000C01B0228C4D828688007F7D528686169C8
:100A500020F0F80040EAC10028600DE0C6F80080F0
:100A6000FFF7ECFD074604E0FFF7E8FDC01B022896
:100A700023D828688007F7D4207800072CD5794838
:100A8000A169D9B1C0F80090FFF7D8FD074604E08E
:100A9000FFF7D4FDC01B02280FD8686A8007F7D57E
:100AA00071484FF4FA510068B0FBF1F0009000BFBC
:100AB0000098411E0091FAD20EE080E0C0F800805C
:100AC000FFF7BCFD074604E0FFF7B8FDC01B022896
:100AD00075D8686A8007F7D42078400760D5E86940
:100AE0000027C00008D4E86940F08050E861E86958
:100AF000012700F0805000905C480168C90513D4BC
:100B00000168834641F480710160FFF797FD8246DA
:100B100006E000BFFFF792FDA0EB0A0064284ED864
:100B2000DBF80000C005F5D5E06801280AD008B15F
:100B3000052813D0286A20F001002862286A20F0D6
:100B4000040002E0286A40F001002862E06841F2F7
:100B5000883B98B1FFF772FD82460BE0286A40F0AF
:100B600004002862EEE700BFFFF768FDA0EB0A0172
:100B700059455AD8286A8007F6D50CE0FFF75EFD84
:100B8000824605E0FFF75AFDA0EB0A0159454CD813
:100B9000286A8007F6D41FB1E86920F08050E86128
:100BA000E06988B36968C1F38101022944D0022851
:100BB000C6F8608004D0FFF741FD044638E034E019
:100BC000FFF73CFD074604E0FFF738FDC01B022895
:100BD0002BD828688001F7D4206AB0F5803F05D172
:100BE0006868A16820F4003008436860D4E908010F
:100BF0000843696821F4741108436860C6F860907E
:100C0000FFF71CFD044606E025E000BFFFF716FDD8
:100C1000001B022809D828688001F7D51BE000BF17
:100C2000FFF70CFD001B022802D90320BDE8F88F56
:100C300028688001F4D40EE00128F7D06868226AA1
:100C400000F48031914204D1616A00F4701088424E
:100C500001D00120EAE70020E8E700000010024090
:100C60000000424280044242F00000200070004038
:100C700010B5401EB0F1807F01D3012010BD4FF0B0
:100C8000E02460610F21601701F049F80020A061A5
:100C900007202061002010BD70B590F83C20012A8B
:100CA00026D0012480F83C40022280F83D200368D1
:100CB0005A689D6822F070060A6832435A600D4BEC
:100CC00002689A4208D0B2F1804F05D00A4B9A428E
:100CD00002D00A4B9A4204D1496825F08003194397
:100CE000916080F83D40002180F83C10084670BDBE
:100CF000022070BD002C01400004004000080040AC
:100D000010B5040003D094F83D0010B107E00120B5
:100D100010BD002084F83C00204600F01FF802209F
:100D200084F83D00211D206800F0C4FD012084F8F6
:100D3000460084F83E0084F83F0084F8400084F8C0
:100D4000410084F8420084F8430084F8440084F8A9
:100D5000450084F83D00002010BD000008B5006883
:100D60000649884208D10648C16941F00401C161C1
:100D7000C06900F00400009008BD000000080040B9
:100D80000010024090F83D10012901D00120704769
:100D9000022180F83D1000680B49884208D0B0F16C
:100DA000804F05D00949884202D00949884204D1C0
:100DB000816801F00701062903D0016841F00101B3
:100DC0000160002070470000002C0140000400403A
:100DD0000008004070B5044690F83C00012817D088
:100DE000012584F83C50022084F83D002068826888
:100DF00022F0770222F47F4282600868502830D0C7
:100E00000DDC20284DD005DC98B310283BD148E0FC
:100E1000022070BD302844D0402834D139E0602809
:100E200028D0702806D0B0F5805F2CD0B0F5005FD8
:100E300029D10AE0CB68D1E90121206800F07DFDCD
:100E40002068816841F0770109E0CB68D1E9012190
:100E5000206800F072FD2068816841F48041816063
:100E600011E0CA684968206800F01CFE5021206823
:100E700007E016E0CA684968206800F024FE602197
:100E8000206800F064FD84F83D50002084F83C00A8
:100E900070BDCA684968206800F004FE40212068DF
:100EA000EFE7226801461046EBE7000000B585B089
:100EB0000021009101910291039100680B49884241
:100EC00011D10B48816941F008018161806969464F
:100ED00000F008000490C0200090022001900390D0
:100EE0000448FFF7BBFA05B000BD00000008004051
:100EF00000100240000C014070B5044690F83C0020
:100F00000D4601280AD0012084F83C0042B1042A91
:100F100018D0082A2AD00C2A4DD139E0022070BD01
:100F2000206800F01DFD2068816941F008018161A1
:100F30002068816921F004018161206881692A6942
:100F4000114311E0206800F033FD2068816941F40D
:100F5000006181612068816921F48061816120687C
:100F600081692A6941EA0221816124E0206800F058
:100F70004BFD2068C16941F00801C1612068C16969
:100F800021F00401C1612068C1692A69114311E09F
:100F9000206800F065FD2068C16941F40061C1610D
:100FA0002068C16921F48061C1612068C1692A6932
:100FB00041EA0221C161002084F83C0070BD10B5F7
:100FC000040003D094F83D0010B107E0012010BDEB
:100FD000002084F83C00204600F01EF8022084F82F
:100FE0003D00211D206800F065FC012084F84600CA
:100FF00084F83E0084F83F0084F8400084F8410003
:1010000084F8420084F8430084F8440084F84500E2
:1010100084F83D00002010BD7047000010B5044664
:10102000022249B104290ED0082913D094F84100B6
:10103000012816D0012010BD94F83E000128F9D1F6
:1010400084F83E200FE094F83F000128F2D184F8A4
:101050003F2008E094F840000128EBD184F84020BC
:1010600001E084F841200122206800F059FC0F497A
:101070002068884203D1426C42F4004242642068F6
:10108000884208D0B0F1804F05D00949884202D08B
:101090000849884204D1816801F00701062903D07C
:1010A000016841F001010160002010BD002C0140E9
:1010B000000400400008004030B504460D460068BA
:1010C000002200F02DFC174B41F2111120688A100C
:1010D000984209D1036A0B4206D1036A134203D135
:1010E000436C23F4004343642068036A0B4206D137
:1010F000016A114203D1016821F001010160012060
:101100003DB1042D08D0082D09D084F841000020FD
:1011100030BD84F83E00FAE784F83F00F7E784F832
:101120004000F4E7002C01407047704710B50446BA
:101130000068C16821F49071C1602068416921F0A4
:1011400001014161206B012804D12068C16821F0B0
:101150001001C160216848694FF0200243064FF03A
:1011600000000FD54B6923F040034B61A16B49B1DF
:1011700009484863A06BFFF713F950B1A06B416BAE
:10118000884706E0E08584F83E2020632046FFF78C
:10119000CCFF002010BD0000FB1A000870470000C3
:1011A000F8B5026804461068D168536910F00F0F53
:1011B0004FF0000553D003F0010601F49077374358
:1011C0005FD0C20705D0CA0503D5226C42F00102E8
:1011D0002264420705D5DA0703D0226C42F00202EE
:1011E0002264820705D5DA0703D0226C42F004029C
:1011F0002264020707D501F02002324303D0226C9B
:1012000042F008022264226C002A34D0800604D501
:10121000880602D5204600F093FC20684069216CC6
:10122000C0F38010090700D430B3204600F070FCF2
:101230002068416949061BD5416921F0400141619F
:10124000A06BA8B158494163A06BFFF7A9F800282B
:1012500011D0A06B416B01B0BDE8F0400847830698
:101260000FD58B060DD52046BDE8F84000F068BCD0
:101270002046FFF793FFF8BD2046FFF78FFF256458
:10128000F8BD266B2023012E52D1C60650D5CE06BE
:101290004ED5106850680090506940062AD5A16B61
:1012A000086840680004000CEAD0A68D8642E7D9A1
:1012B000E0858869202818D0D06820F48070D0603C
:1012C0002068416921F0010141612068416921F0F4
:1012D0004001416184F83E3025632068C16821F0F7
:1012E0001001C160A06BFFF738F8A08DE18D401AA6
:1012F00081B219E0A08DE18D401A81B2E08D002805
:10130000BED00029BCD0D06820F49070D060206896
:10131000426922F00102426184F83E302563206870
:10132000C26822F01002C2602046FFF7FDFEF8BD41
:1013300005062BD50D0629D594F83D002128F6D1B8
:10134000A068B0F5805F01D12069B0B1206A411C6E
:101350002162216800784860E08C401E0004000C87
:10136000E084E4D12068C16821F08001C160206878
:10137000C16841F04001C160F8BD206A0088C0F337
:1013800008005060206A801C2062E5E74006F3D523
:101390004806F1D5D168204621F04001D16084F89B
:1013A0003D3000F0A3F8F8BDEB1A000870B504005A
:1013B00004D094F83D00002510B106E0012070BD76
:1013C00084F83C50204600F023F8242084F83D00A7
:1013D0002068C16821F40051C160204600F00CFC77
:1013E0002068016921F4904101612068416921F080
:1013F0002A0141612068C16841F40051C16025643F
:10140000202084F83D0084F83E00002070BD0000DC
:1014100030B585B0002400940194029403940068D0
:10142000184988422CD11848816941F48041816172
:10143000816901F480410491816941F00401816175
:101440008069124D00F0040004904FF40070009089
:10145000022001900320039069462846FEF7FEFF14
:101460002815CDE90004694628460294FEF7F6FFE8
:10147000002211462520FFF74DF92520FFF73CF902
:1014800005B030BD003801400010024000080140A6
:1014900090F83E30202B0ED159B152B190F83C302B
:1014A000012B08D0012380F83C300023036300F0B7
:1014B000FFBB0120704702207047000010B5006894
:1014C0000649884209D10649012008701C220549B5
:1014D0000548FFF7DDFF0028F8D010BD00380140B7
:1014E0000000002014020020840200207047FEE764
:1014F0000D4808B5816941F020018161816901F0E1
:1015000020010091816941F004018161816901F04C
:1015100004010091816941F008018161806900F056
:101520000800009008BD00000010024010B58EB009
:1015300000240794089409940A940B941C2168468B
:101540000C94FEF763FE2348214901604721C0E95E
:10155000011444F61F61C0E9031480218161FFF783
:10156000CFFB08B1FEF7F7FE4FF48050079007A9B4
:101570001848FFF72FFC08B1FEF7EDFE1548FFF7FE
:101580001EFD08B1FEF7E7FE0B940BA911480C9461
:10159000FFF782FB08B1FEF7DEFE6020CDE9000414
:1015A0000294002269460B480494FFF7A5FC08B199
:1015B000FEF7D1FE042269460648FFF79DFC08B1FC
:1015C000FEF7C9FE0348FFF771FC0EB010BD000026
:1015D000000800403C0200200C4810B50A49016098
:1015E0004FF4E1314160002181600C22C160C0E90B
:1015F00004128161C161FFF7D9FE002803D0BDE864
:101600001040FEF7A8BE10BD003801408402002043
:10161000FEE7FEE770B50468154669B1042915D0E8
:10162000E06A08291CD002F0B3FA294602F0F8FA61
:1016300002F076FA206470BDE06A02F0A9FA294649
:1016400002F0EEFA02F06CFA606370BDE06A02F03C
:101650009FFA294602F0E4FA02F062FAA06370BD34
:1016600002F096FA294602F0DBFA02F059FAE0633A
:1016700070BD704770B50446C160B0F848001546AB
:10168000C00502D5204601F0DDF8A5612946E068D5
:1016900002F0CEFBE0630546216C02F0C9FB20633B
:1016A000B5F5000F01DB284601E085F00040216D13
:1016B00002F082FB7DD8E56B2168284602F0B0FA83
:1016C0002062E069294602F0FBF8E06194F84800E6
:1016D000000703D5204601F07DF804E0216BA068E7
:1016E00002F09EFAA06294F84800800602D52046D7
:1016F000FEF700FE94F84800800711D5E16CE06920
:1017000002F05AFB01D2E06CE061E06CE16980F02C
:10171000004002F051FB03D2E06C80F00040E06139
:10172000E169606802F07CFA606294F84800C006E3
:101730000BD5E16BA06D02F03FFB06D2616DE06B53
:1017400002F03AFA01D20020606294F848000006E4
:1017500005D5A16A04F1680001F0A8F8A062616AE9
:10176000206A02F0ADF8A16A02F0AAF8E062014630
:1017700094F84800400604D504F1780001F096F88A
:10178000E06294F84800400716D5616CE06A02F008
:1017900013FB01D2606CE062606CE16A80F0004093
:1017A00002F00AFB08D2606C80F00040E06203E0C7
:1017B000FFE7204601F0C4FAA0696061E06820619B
:1017C000206B6063E06B2064E06A70BD2DE9F0413E
:1017D0000F461D46164604469021DDF81880FEF798
:1017E000F3FC0020C4F88C0027606660A560C4F894
:1017F0004880BDE8F081102919D008DC092911D2F0
:10180000DFE801F010221110181010101300202929
:1018100015D0402910D0802914D0B1F5807F01D196
:10182000C0F888207047C2647047426670474265BE
:101830008365704742647047C0F884207047C26572
:101840000366704742677047026570477047FEF74E
:10185000FBBE30B58FB028216846FEF7D7FC1421B7
:101860000AA8FEF7D3FC01210804CDE900100024EA
:10187000029402250491CDE907504FF4E01009903D
:101880006846FFF765F808B172B6FEE70F20CDE9AC
:101890000A054FF48060CDE90C4002210AA80E949D
:1018A000FEF76AFF002801D072B6FEE70FB030BD28
:1018B00070470000F0B50268164B174C174D4FF0FB
:1018C0008047984205D0B84203D0A04201D0A84238
:1018D00003D122F070064A683243984205D0B842DC
:1018E00003D0A04201D0A84203D122F44074CA68B8
:1018F00022434C6922F08002224302608A68C2625D
:101900000A688262984201D109690163012141613B
:10191000F0BD0000002C0140000400400008004021
:1019200010B501F01F030121046A99408C43046241
:10193000016A9A401143016210BD10B5846842EA01
:10194000032224F47F440A432243826010BD82684C
:1019500022F070020A4342F00701816070470000E4
:1019600030B5026A22F001020262026A43688469A9
:1019700024F073050C682C4322F002058A682A4380
:101980000A4DA8420BD122F00805CA6823F440731F
:101990002A434D6922F004021D438B692B434360A7
:1019A000846149684163026230BD0000002C01403F
:1019B00030B5026A22F010020262026A436884694A
:1019C0000D6824F4E64444EA05248D6822F02002E0
:1019D00042EA05120B4DA8420ED1CD6822F08002DA
:1019E00042EA05124D6923F4406343EA85038D6999
:1019F00022F0400243EA85034360846149688163C1
:101A0000026230BD002C014030B5026A22F48072BF
:101A10000262036A4268C46923F4007324F0730508
:101A20000C682C438D6843EA05230C4DA8420ED167
:101A3000CD6823F4006343EA05234D6922F4405244
:101A400042EA05128D6923F4806342EA051242607E
:101A5000C4614968C163036230BD0000002C0140CD
:101A600030B5026A22F480520262046A4268C36995
:101A70000D6823F4E64343EA05238D6824F40054FB
:101A800044EA0534064DA84204D14D6922F480424F
:101A900042EA85124260C36149680164046230BD54
:101AA000002C014010B5036A046A24F001040462AA
:101AB000846924F0F00444EA021423F00A020A4381
:101AC0008461026210BD10B5036A23F01003036243
:101AD0008369046A23F4704343EA023224F0A003CA
:101AE00043EA01118261016210BD10B5406A002114
:101AF000C185C184FFF752FB10BD10B5406A0021BB
:101B0000C185202280F83E200163FFF70EFB10BD47
:101B10000168CA6822F49072CA6001684A6922F0BA
:101B200001024A61016B012904D10168CA6822F0EF
:101B30001002CA60202180F83E1000210163704726
:101B400008B590F83E10222901D0022008BD826815
:101B50004FF480539A4201D1016921B1816A9A42BE
:101B60001BD04AB10AE00268816A5268C2F30802D7
:101B70000A80816A891C08E0026972B102685268B1
:101B800002F07F020A70816A491C8162C18D491E80
:101B90000904090CC18503D019E002685268F1E715
:101BA0000168CA6822F02002CA600168CA6822F48B
:101BB0008072CA6001684A6922F001024A612021EC
:101BC00080F83E10016B012903D0FFF777FC00205D
:101BD00008BD002101630168CA6822F01002CA60D2
:101BE00001680A68D20602D50A6849680091818DA9
:101BF000FFF79AFAEBE7000070B504460068016948
:101C0000E26821F44051114301612169A068084351
:101C1000616908432168CA6841F20C639A43024330
:101C2000CA6020684169A26921F440711143416191
:101C30001E492068884202D1FEF744FE01E0FEF70B
:101C400031FE00EBC00101EB0012606864218000EE
:101C5000B2FBF0F3B3FBF1F36FF018067343B2FB82
:101C6000F0F5B2FBF0F605EB8305322303EB051527
:101C7000B5FBF1F5B6FBF1F605F0F00505EB061541
:101C8000B2FBF0F6B2FBF0F0B0FBF1F06FF018022F
:101C9000504306EB800003EB0010B0FBF1F021682D
:101CA00000F00F002844886070BD0000003801403B
:101CB00081628285C28500210164222280F83E2053
:101CC00080F83C100168CA6842F48072CA600168FA
:101CD0004A6942F001024A610068C16841F020018E
:101CE000C1600020704700000148FFF759BA0000AA
:101CF00084020020FEE7490050EAC12018BF0420FA
:101D00004A0D18BF40F0010040F2FF72B2EB515F84
:101D100008BF40F00200012808BF052070470907EE
:101D2000090E002804DB00F1E02080F80014704761
:101D300000F00F0000F1E02080F8141D7047000053
:101D40002DE9F74F144694B00021C4E9021115990A
:101D5000079121F00045C9498D4206DC1599C4E977
:101D6000000117B00020BDE8F08FC549DFF814A3CB
:101D7000A9423CDD0799C44E0029C44FC44A1599B5
:101D8000534619DD01F086FC554506D0C14AC24BC9
:101D900001F080FCC4E900010AE04FF0D352BE4BD1
:101DA00001F078FC32463B4601F074FCC4E90001C6
:101DB00017B00120BDE8F08F01F046F8554506D078
:101DC000B44AB54B01F040F8C4E900010AE04FF015
:101DD000D352B14B01F038F832463B4601F034F8AB
:101DE000C4E9000117B04FF0FF30BDE8F08FAB49F8
:101DF000A942159978DB21F0004183468846A84A1C
:101E0000A84B01F007FB0022A74B01F01DF801F0E1
:101E10006BFA099001F097FA06460F469C4A534622
:101E200001F0F8FA43465A4601F028FC80468A46FB
:101E3000984A994B3046394601F0ECFA2A0D0125B3
:101E40000B924246534601F019FC032DC4E90001F0
:101E500039D00B98C1F30A51401A05EB45111139DD
:101E6000814230DA9148C346784400EB0510CDF842
:101E70000CA00C90D0E900233046394601F0CAFA94
:101E800002460B46049106905846039901F002FC65
:101E900080468A4602460B465846039901F0FAFBF3
:101EA000049B069A01F0F6FB83460C980391394691
:101EB000D0E90223304601F0ADFA5A46039B01F007
:101EC000E9FB6D1CBDE707980028A2BF099817B071
:101ED000BDE8F08F616881F000416160099817B03A
:101EE0004042BDE8F08FFFE784461598C1F3130127
:101EF000C0F30A50A0F2F5304FEA601800F01F0658
:101F0000C6F12000139000200690079041F4801E37
:101F100005206D4676B1664A08EB00017A4452F816
:101F2000213002EB8101B3404A68139922FA01F192
:101F3000194305E05F4908EB0002794451F822108B
:101F4000A1FB0E27A1FB0C131A449A4234BF0123B4
:101F5000002303EB070A05EB8003D3E901B70F4425
:101F60008F4234BF0121002193448B4411B193452A
:101F700002D903E0934501D2012100E00021C3E929
:101F800001B7514445F82010011EA0F10100C1DC49
:101F90000298059F00F10050800F12900298DDE931
:101FA0000356800001F0CFF9834628460D9101F0D9
:101FB000E1F96FF01D0201F0E2FFCDE90E013046BC
:101FC00001F0D8F96FF03D0201F0D9FF80468A4652
:101FD000384601F0CFF96FF05D0201F0D0FF0746FF
:101FE00042465346119100F02FFFDDE90E2300F029
:101FF0002BFF5A460D9B00F027FF00250E465A4640
:1020000028460D9B01F046FBDDE90E2301F042FB63
:102010004246534601F03EFB3A46119B01F02EFB2F
:10202000DFF898A0244A534601F0F4F907468846A1
:10203000234A244B3146284601F0ECF93A46434600
:1020400000F002FF074688464FF0A842534631464B
:10205000284601F0DFF93A46434600F0F5FE159AAE
:1020600012F0004F04D0129A81F0004152421292B5
:10207000C4E90001129817B0BDE8F08FFB21E93FD9
:102080007CD90240FB21F93F7370032E8A19A33BD0
:10209000000040543163621A61B4D03DFB213941E4
:1020A00083C8C96D305FE43F0000E03F5C22000060
:1020B000D8210000BA210000182D4454FB21F93D1D
:1020C0003326A611460B113C2DE9F0414F1E00EBC3
:1020D000C7010446D1E9000115461E4637F0060245
:1020E0000DD02A46334601F095F97F1E04EBC70355
:1020F000D3E9002300F0A8FE37F00602F1D1022F49
:1021000025D0042F13D0062F18BFBDE8F0812A4632
:10211000334601F07FF9D4E90A2300F095FE2A4600
:10212000334601F077F9D4E9082300F08DFE2A4602
:10213000334601F06FF9D4E9062300F085FE2A4604
:10214000334601F067F9D4E9042300F07DFE2A4606
:10215000334601F05FF9D4E9022300F075FE2A4608
:10216000334601F057F9D4E90023BDE8F04100F00F
:102170006BBE00002DE9F04D04468CB0904821F074
:102180000047164698460D460991874206DA2046D2
:10219000294601F0A9F8002800F0AE808948B8422D
:1021A0001CDC09980028BCBF85F0004588F0004879
:1021B000854A864B2046294601F060FA04460D46C2
:1021C000324643468248834901F064FA22462B4650
:1021D00000F03AFE002604460D46B04622462B4645
:1021E0001046194601F016F98B46824602460B4608
:1021F00001F010F90246089077480B46009106213D
:102200007844FFF761FFCDE9031074480621784454
:10221000009B089AFFF758FF52465B4601F0FAF818
:10222000CDE9051052465B462046294601F0F2F8FA
:1022300007910090DDE90310DDE9053200F004FEAE
:10224000079B009A01F0E6F83246434600F0FCFD99
:1022500052465B4601F0DEF83246434600F0F4FD9C
:1022600080460E465E4A5F4B0799009801F0D2F80F
:102270004246334600F0E8FD82468B4622462B4616
:1022800000F0E2FD80464F480E46B84214985BDCF1
:1022900001F059F8074642463346059100F0D4FD57
:1022A000CDE90110424633461046194601F0B2F816
:1022B000DDE9013200F084FE52465B4601F0EAF9A6
:1022C00022462B4601F0DAF9012201F058FE3A4687
:1022D000059B01F0D3F904460D460998022101EA55
:1022E000A070C0F1010001F02EF80CB022462B4680
:1022F000BDE8F04D01F08EB81498401C38432043DF
:102300000BD01498012812D00CB022462B46BDE801
:10231000F04D0020344900F053BE0CB025F00043CE
:102320002246BDE8F04D0020304900F049BE20466D
:102330002946FFF7E0FC042808BF00F065F82046B6
:102340000CB02946BDE8F08D012802BF40460CB014
:10235000BDE8F08D00270B463A462046294601F09D
:102360008DF952465B4601F089F904460D46424616
:10237000334600201C4900F023FE83463A46884637
:102380003346104601F046F80022184B00F05CFD81
:1023900006468A4622462B463846414601F03AF820
:1023A0003246534600F050FD5A46434601F032F89B
:1023B0000CB03A464346BDE8F04D00F045BD000084
:1023C0000000303E2894E53F182D4454FB21E93F9E
:1023D000075C143326A6813C8C1F0000AE1F000052
:1023E000635555555555D53F0000F0BF0000F03FEF
:1023F000012201F0C4BD00F027BD002213461046A3
:10240000114600F0DDBD0000024A0020110701F076
:10241000B6BD000001FDFFFF2DE9F84F04460D4653
:1024200021F0004000917349814211DC72498842D9
:1024300001DC06D12CB120462946BDE8F84FFFF754
:10244000D7BF6E48002DCCBF6D496E49BDE8F88FEF
:102450006D49814211DD6D498142D8BF4FF0FF3691
:102460006DDD20462946FFF746FC042808BFFFF72C
:10247000CBFF20462946BDE8F88F6549654F25F01A
:102480000045814233DD6449814219DD0026324630
:102490004FF080432046294600F0D6FC80468A460D
:1024A00001222046294601F06AFD00223B4601F048
:1024B000F1F84246534600F083FD04460D463EE0E7
:1024C00001260022BA463B462046294600F0BCFCC5
:1024D00080460F46002253462046294601F0DAF88E
:1024E00042463B4600F06CFD04460D4627E04B4952
:1024F00081421BDDDFF828A1022600225346204638
:10250000294600F087FF00223B4600F09DFC8046F4
:102510000F46002253462046294601F0BBF84246AA
:102520003B4600F04DFD04460D4608E003262246DA
:102530002B4600203B4900F043FD04460D46224651
:102540002B461046194600F065FF8B468246024630
:102550000B4600F05FFF07460246334888460B46AD
:1025600006217844FFF7B0FD52465B4600F052FF6B
:1025700082462E488B463A46434605217844FFF76B
:10258000A3FD3A46434600F045FF02460B46002EA7
:10259000504659460CDA00F057FC22462B4600F014
:1025A00039FF01B022462B46BDE8F04F01F066B876
:1025B00000F04AFC22462B4600F02CFF1C4A7A44CD
:1025C00002EBC603D3E9002301F064F822462B4650
:1025D00001F060F8174A7A4402EBC603D3E90023FE
:1025E00001F04CF8009A002AB8BF81F00041BDE824
:1025F000F88F0000000010440000F07F182D4454B4
:10260000FB21F93FFB21F9BF0000DC3F0000203E29
:102610000000F33F0000F03F0000E63F0080034071
:102620000000F83F0000F0BF2A1B0000E81A00007D
:10263000861A00004E1A00002DE9F04D9446CCF1A8
:10264000000423F000464CEA0404594F46EAD474CF
:102650009A46884621F00042BC4206D8454240EAEC
:10266000050442EAD474BC4204D9BDE8F04D624688
:10267000FFF7C1BEAAF14055A5F17F6555EA0C04EC
:102680000BD0022404EAAA744A4DDFF82CE144EA94
:10269000D87452EA000B04D00CE0BDE8F04DFFF70F
:1026A000BBBE002C14BF012CBDE8F08D022C30D035
:1026B000032C32D056EA0C0B0AD0BE4220D1BA42CB
:1026C00009D126F0804622F080423346114617E0B9
:1026D00000291ADB25E0DFF8E4B0FB44002C04BF3E
:1026E000DBE90001BDE8F08D012C02BFDBE9000150
:1026F00081F00041BDE8F08D022C0AD0032C0CD0F3
:10270000BA4212D1B8F1000F0BDA2A482C49BDE8C1
:10271000F08D28462B49BDE8F08D28467146BDE86E
:10272000F08D24482849BDE8F08D921B12153C2AF3
:10273000C4BF204F244E10DCBAF1000FBEBF12F10F
:102740003C0F00273E4608DB624600F039FC21F0D2
:102750000041FFF761FE07460E4694B1012C08BF09
:1027600086F000460DD0194A194B022C38463146E6
:1027700015D000F08FFF2A46BDE8F04D114B00F058
:1027800089BF002213463846314600F071FD04BF70
:102790000220FDF76AFD38463146BDE8F08D00F0B5
:1027A00079FF2A46BDE8F04D064B00F067BF0000F8
:1027B0000000F07F182D4454FB2109C0E2190000ED
:1027C000FB21F9BFFB210940FB21F93F075C1433D2
:1027D00026A6A13C2DE9F04704468668406E3146A6
:1027E000804601F01DFA2768394601F069F8054670
:1027F0000146304601F0D2F881463946304601F0B4
:102800005FF8294601F0CAF805464946404601F0FE
:1028100007FA07466169484601F002FA0646A169CF
:10282000284601F0FDF90546A16A384601F0F8F99D
:10283000294601F045F8314601F042F8A062BDE8B2
:10284000F08700002DE9F0410446C0682669804603
:1028500001460025304601F0EBFA4FF40007B8427C
:1028600003DA3146404601F0E3FAD4F8881001F06B
:10287000A3F916D92069E168064601F0D9FAB842F1
:1028800001DB094D04E010F1FF4F01D34FF07E55FD
:10289000D4F88810284601F0C3F9314601F010F849
:1028A000E060BDE8F0810000000080BF2DE9F0414C
:1028B00004460F462160C6684FF07E50314601F055
:1028C000B7FA616801F0ACF905463846314601F0C7
:1028D000A7F9294600F0F4FFA0606060BDE8F08130
:1028E00008B5FDF7B9FEFEF7B4FFFEF701FEFEF7EF
:1028F0001DFEFEF771FEDFF8D0A303211C228AF82B
:102900000310F249F248FEF7C3FDF24F4FF4807412
:102910004FF07E563B4600223146EF480094FEF7CA
:1029200055FFEE4D00232A462146EB48FEF763FF94
:10293000E949EB483B460861E448002231469038BB
:102940000094FEF743FFE14800232A4621469038D1
:10295000FEF751FFDD49E348903908610021E24864
:1029600000F000FA0421E04800F0FCF94FF0000B01
:10297000CDF800B09AF80000B0B1D44A10786628BB
:1029800008D15078662805D1907E652802D1D07E86
:1029900065282CD0CE48FEF7C9FB1C22CB49CC4879
:1029A000FEF776FD8AF800B000985446401C00906F
:1029B00001208AF801009AF802109AF80300814277
:1029C0000BD0C1492C31A1611831E161683121621C
:1029D000C649A160E160C6490091A07001285BD0A2
:1029E00002286BD0032879D0042876D1B7E0B64B03
:1029F000C04C843302201618155CB778303D05EBC7
:102A0000C50101EB051107EB81057178C01C01EBD5
:102A1000810104EB4101294402C31B28EBDBAA4DD1
:102A2000DFF8D4828435DFF8D492B04F05F1280462
:102A30000026286801F094F8414601F0F1F8494673
:102A400000F0ACFF394601F0E8F9AD4901F0E8F8D3
:102A500020606868083501F083F8414601F0E0F82D
:102A6000494600F09BFF394601F0E2F94FF0814101
:102A700001F0DEF9A34901F0D3F8A34901F0CDF943
:102A800060600834761C042ED3DB8F48AC300168BC
:102A900001624168416285E70098962867D3A16981
:102AA0009A4A0868904203D187482C30A06110E010
:102AB000E06048680831A161A06015E000989628A0
:102AC00055D3E069914A0168914208D17E4844306B
:102AD000E06184F801B0CDF800B048E007E0E160C3
:102AE00041680830A160E061CDF800B03FE0009996
:102AF00040F2EE20814223D3256A84482E68864224
:102B000003D17148AC302062E3E76F68A0683946B2
:102B1000814601F08DF980463146E06801F088F980
:102B2000414600F03BFF60624946384601F080F9BB
:102B3000774900F033FF08352562A062CDF800B078
:102B4000A16AA0680D4600F0BBFEA0602846616A3D
:102B500001F066F8E16800F0B3FEE06007E00021F4
:102B6000614800F00AF904215F4800F006F969485D
:102B7000A168814200D90146674AA160914200DD07
:102B80001146A160E168814200D80846E0609042A9
:102B900000DD1046614E314601F042F8E06000F081
:102BA00063FE5F4F00223B46FFF746FD7A035D4B15
:102BB00000F030FC00F016F9DFF86C8160614546EA
:102BC000414601F02DF881462946606801F028F859
:102BD000564900F075FE494600F072FE014600229B
:102BE0003D48FEF747FD024604213F48FEF712FD2F
:102BF0003146E06800F0D2FEE0604D49A06801F087
:102C00000FF84FF02049A06048464A4900F0B8F854
:102C10000022494B00F0FEFB05460E46A06800F07E
:102C200023FE2A46334600F0F3FC11D2A06800F0E0
:102C30001BFE06460D4648463E4900F0A1F800221C
:102C40003B4600F0E7FB32462B4600F0FDF814E06F
:102C50004846384900F094F800223B4600F0DAFB81
:102C600005460E46A06800F0FFFD33462A4600F0F8
:102C7000EBF800F0B7F800F0F7FD00223B46FFF755
:102C8000DBFC4FF00052274B00F0C4FB00F0AAF829
:102C90004146206100F0C4FF284900F011FE0146C2
:102CA0000A4800229038FEF7E5FC024600210E4853
:102CB000FEF7B0FC1E49A06800F070FEA060012085
:102CC000FDF7BAFB56E600000000002014020020C9
:102CD0008402002000002041F400002017B7D13802
:102CE0000F53973D9B6D953D3C0200200000C8416D
:102CF000A0860100F0FDFFFF000048420000AA424C
:102D00001F858B3F85EB913F3333333F0000FE42FD
:102D100000803B440000F0C10000F0415C8F823F26
:102D200000005940DCA54C40452EC239CDCCCC3CEE
:102D30003333733F46DF81BF000059C0B2CE953DAB
:102D400000210164C163816341630163C1618162E8
:102D500041620162C16201614161C1608161C1671B
:102D6000C166704770B50C460546FEF70BF8214664
:102D70002846BDE87040FEF751B9FEF79DB9000046
:102D800010B5164B21F00042012486B09A4203DCB4
:102D90000022134600941CE0114B9A4208D140B91E
:102DA0004FF00100FDF761FAFFF727FB06B010BDF9
:102DB00003DBFFF71DFB06B010BD02AAFEF7C0FF44
:102DC00000F00100A4EB40000DF1080C00909CE81D
:102DD0000F00FFF7CFF906B010BD0000FB21E93F5F
:102DE0000000F07F21F00042A2F16052B2F5801F96
:102DF00001F0004328BFD2F17F6C0BD95FEA001CC1
:102E000043EAC20242EB507018BF704728BF20F05F
:102E100001007047B2F5801FBCBF184670474FEAEB
:102E2000410C1CF5001F02D2084600F0C0BF70B56F
:102E300000F09AFB00000089FFF7F6BF4FF000405A
:102E4000A0F580007047000010B591EA030F48BF5D
:102E500083F0004300F12684841A71EB030C05D241
:102E6000121943EB0C03001B61EB0C01DFF824E1AA
:102E70004FEA1154A4EB135C1EEA430F18BF9EEAFD
:102E8000445F73D023EA0E03DCF1200E21EA0451E3
:102E900043F4801332D322FA0CFE10EB0E0023FA17
:102EA0000CFE41EB0E01CCF1200E03FA0EFE10EBEE
:102EB0000E0051F10001B1F5801FCCF1200E32D28D
:102EC00001EB045112FA0EF2BDE8104058BF7047F2
:102ED000401C38BF5FEA420218BF7047002814BF89
:102EE00020F0010041F100014FEA410313F5001FFA
:102EF00038BF7047A1F1C04100F084BB012A43EB09
:102F00000302ACF1200CDCF11F0E32BF4FF0000EBB
:102F100023FA0CF310EB030041EB0451B4EB115F07
:102F2000D0D0A1EB045101F5801149085FEA3000CF
:102F300001EB04510ED350F1000038BF12FA0EFE1F
:102F400008D1BDE81040C9E7401C38BF5FEA420223
:102F5000CAD1C3E7BDE810404FEA410313F5001F93
:102F600038BF7047A1F1C04100F04CBB9EEA445FFE
:102F700008D011EA5E0FBDE8104004BF01F0004127
:102F800000207047BDE8104070B500F0EDFA00BFBA
:102F900064FBBE3E0000E0FF02494FF0000000F07D
:102FA000BCBF00BF0000F87F491058BFC1F14041CD
:102FB0005B1058BFC3F140438B42EFF30080704772
:102FC0002DE9C04130B4DFF8A0C23CEA111418BFAB
:102FD0003CEA131400F0EC8081EA03051CEA1114AA
:102FE00044EAD57418BF1CEA131500F0C780A4EB9F
:102FF00005044FF0004545EAC12145EAC32341EAF3
:10300000505143EA525304F17F74994204F500345D
:103010004FEAC0204FEAC22208BF904200F09C80D5
:103020004FEA13650FF24016765D4FEA134506FB33
:1030300005F7C7F1807706FB07F74FEAD737A7FBFD
:1030400003687642C8F58038A7FB06CE38BFA8F1E2
:10305000010807FB08E64FF0000EA6FB028CE6FB1A
:1030600003CEDCF1000CCEF1004E38BFAEF1010E04
:10307000A6FB0C584FF000074FF00005E6FB0E874B
:10308000A1FB08C6A0FB07CE16EB0E0645F1000516
:10309000E1FB076515F1E04E7EBFA4F580345FEAE1
:1030A00046066D4116F1800745F100054FEA1727E6
:1030B0004FEA066647EA0567A6F1DE46B6F1805F8D
:1030C0004FEA15251FD9384624F0010C05EBC471D1
:1030D000BCF1FE6F01EB0C1102D8F0BCBDE8008121
:1030E00024425CBF01F5801E9EEAC47F02D4F0BC7E
:1030F000BDE80081244238D4F0BCA1F1C041BDE854
:10310000004100F07FBA4FEAD22242EA43524FEA2E
:10311000D323A7FB02864FEAD02040EA415007FBA9
:1031200003661EEA0E0F4FEAD12105FB026658BF67
:10313000A6EB0056B6EB00564FEA520E4EEAC37E9F
:1031400018EB0E0E56EB530EBDD518EB02085E4180
:103150007F1C55F10005B6E74FF480154FF00007CE
:103160004FF000064FF00008ADE7F0BC4FF0000054
:1031700001F1C04101F00041BDE8008111EA0C1FDE
:103180000CEA131500D00CE013EA0C1F00F02580A8
:103190004FF00000F0BC81EA030101F00041BDE8FE
:1031A0000081F0BCBDE8004181EA030100F02ABAC9
:1031B000F0BCBDE8004170B500F0D6F9097EFC3ED8
:1031C00000F007B881EA03014FF0000001F0004170
:1031D000704781EA030100F015BAF0BCBDE8004178
:1031E0004FF0000021497047FFFDFBF9F7F5F4F2BD
:1031F000F0EEEDEBE9E8E6E4E3E1E0DEDDDBDAD892
:10320000D7D5D4D3D1D0CFCDCCCBCAC8C7C6C5C4EF
:10321000C2C1C0BFBEBDBCBBBAB9B8B7B6B5B4B306
:10322000B2B1B0AFAEADACABAAA9A8A8A7A6A5A4F1
:10323000A3A3A2A1A09F9F9E9D9C9C9B9A999998B5
:103240009797969595949393929191908F8F8E8E58
:103250008D8C8C8B8B8A89898888878786858584E5
:1032600084838382828181800000FF070000F87FD1
:1032700051EA030C17D41CF5801F58BFBCF5801F02
:1032800000F10680994218BF704708BF904270470E
:1032900007D711F5801F58BF13F5801F19D4994225
:1032A0007047894270471CF5801F08D5BCF5801F08
:1032B000F7D58B4218BF704708BF824270474FF462
:1032C000001C1CEB410F38BF1CEB430F01D28B429B
:1032D000704770B500F048F9922449004FF0005152
:1032E0004FF08053FFF760BE4FEA41034FEA53535C
:1032F000A3F58063D3F11E03C8BFD3F1210C0CDD0D
:103300004FF0004242EAC12242EA505232FA03FC34
:103310008CEAE17CACEBE1707047102BC4BF00205D
:10332000704703F5787CBCF1FF3F04D06FF000429A
:1033300082EA2100704770B500F016F949922480A6
:1033400000207047F2E710F0004248BF4042B0FA58
:1033500080F310FA03F10AD0C3F11D0303F5806373
:103360004FEA415002EB035202EBD12170474FF07C
:1033700000007047B0FA80F310FA03F10AD0C3F1ED
:103380001D0303F580634FEA41504FEA035202EBFD
:10339000D12170474FF000007047000051EA030C44
:1033A00017D41CF5801F58BFBCF5801F00F10680A4
:1033B000994218BF704708BF9042704707D711F570
:1033C000801F58BF13F5801F19D499427047894256
:1033D00070471CF5801F08D5BCF5801FF7D58B42C0
:1033E00018BF704708BF824270474FF4001C1CEBA7
:1033F000410F38BF1CEB430F01D28B42704770B5B1
:1034000000F0B2F8922449004FF000514FF0805381
:10341000FFF7CABDDFF848C170B51CEA111E1EBF18
:103420001CEA13159EEA0C0F95EA0C0F00F06F8052
:1034300081EA030423EA4C134EEAD47E21EA4C11BC
:1034400041F4801143F48013AE44A1FB024CA0FB75
:103450000365AEF17F7E361955EB0C05A1FB034CDD
:103460004CF10003A0FB021C16EB0C06654153F166
:103470000003094218BF46F0010613F4007F0BD188
:103480004FEA03314FEA0530340341EA155140EA6F
:1034900016506FF003020AE04FEAC3214FEAC5203D
:1034A000F40241EA555140EA56506FF0020202EB35
:1034B0002E4201EB025585EACE710AD05FEA440C38
:1034C00018BF24F0004450F1000041F1000120EA4F
:1034D000D47040F2FE7C624500D270BDA84214BF99
:1034E0004FF080444FF04044002E08BF0024BEF14E
:1034F000806FA8BFA1F1C041BDE8704080F282801A
:103500004FF0000001F1C04101F0004170479EEA18
:103510000C0F0CEA131518BF95EA0C0F06D04FF0EC
:10352000000081EA030E0EF0004170BD00F01CF8AF
:103530008900013E00F007B800F009B84FEA430CDB
:103540005FEA5C5C08D081EA030100F05BB84FEAF7
:10355000410C5FEA5C5CF6D14FF000000149704716
:103560000000FF070000F87F0EF1020E2EF0030EA0
:103570005EF8046B364205D4012A43EB030515F5CA
:10358000001F12D8012841EB010C1CF5001F0CD8BC
:103590000ED14FEAD17C15F5001F0CEB4C0C0CF151
:1035A000020C08BF4CEBD37C04E04FF0080C01E0A8
:1035B0004FEAD37C0CEB4C0526FA05F606F007061D
:1035C000B6F1040C06D20EEB860CBDE870404CF050
:1035D000010C6047DFE80CF0090B02024FF00041DC
:1035E0004FF00000A1F5002170BD194610460128DA
:1035F00051EB010418BFD4F5001484BF002001F082
:10360000004170BD0808A0F500114FEA3101704774
:1036100053EA010C17D41CF5801F58BFBCF5801F5E
:1036200000F106808B4218BF704708BF8242704786
:1036300007D713F5801F58BF11F5801F19D48B428F
:1036400070479B4270471CF5801F08D5BCF5801F52
:10365000F7D5994218BF704708BF904270474FF4A2
:10366000001C1CEB430F38BF1CEB410F01D29942E9
:1036700070470FB40CBC03BCFFF7C1BE91EA030F47
:1036800010B581F000413FF5E7AB83F0004300F057
:1036900009B8000010B591EA030F48BF83F000435A
:1036A0003FF5DAAB841A71EB030C07D212198CF0D8
:1036B000004C43EB0C03001B61EB0C01DFF8A4E1B1
:1036C0004FEA1154A4EB135C1EEA430F18BF9EEAA5
:1036D000445F00F0B08023EA6E03524221EA0451B5
:1036E000C3EB6E0338BF5B1EDCF1200E25D322FA3C
:1036F0000CFE10EB0E0043FA0CFE41EB0E01CCF178
:10370000200E03FA0EFE10EB0E0051F10001CCF179
:10371000200E29D412FA0EF201EB0451BDE810403C
:1037200058BF7047401C1CBFB2F1004F70470028C3
:103730000CBF491C20F00100704712EB020E43EB56
:10374000030218BF4FF0010E4EEA4202ACF1200C0A
:10375000DCF11E0E54D943FA0CFE10EB0E0051F1B1
:10376000FF31CCF11E0ED5D50EF1010E12FA0EFE70
:10377000404141EB010101EB445C5FEA5C5C10D924
:1037800010EBDE7001EB045138BFBEF1004FBDE815
:10379000104018BF704700280CBF491C20F00100E2
:1037A000704730D24FEAD42C11F5001124F4006494
:1037B0001BD0B1FA81F20B3AA41AA41ED2F1200355
:1037C000914030FA03F31943904001EBCC71002C87
:1037D00001EB0451BDE81040A8BF704701F1C041A2
:1037E0004FF0000001F000417047B0FA80F310FA8A
:1037F00003F100D110BDE41A173C4805C90AE4E7FB
:1038000001EB045110BD491001EB0451BDE810401B
:103810004FEA300002E04FF0000170474A0008BF55
:103820000042F8D0B2F5001F28BF704701F00041F8
:103830004FF0000070479EEA445F07D011EA5E0F28
:10384000BDE8104004BF002100207047BDE81040D3
:1038500070B5FFF789FE00BF40DFF63E83F0004100
:10386000104670470000E0FF43004FEAD30C4FEAD8
:103870003C0C43401FBF40070CF1605113F0FE4F5A
:1038800070471CF0006F03D100200CF0004170471E
:103890000CF0004343EA507010B540EACC0000F051
:1038A00040FA00BF000000924FEA0001FFF7AABEF5
:1038B0004FF000414FF00000A1F5002170470000DB
:1038C00090EA010F48BF81F0004100F1B882421A2E
:1038D0003CBF801A89184FEAD0524FF07F4C1CEA47
:1038E000410FA2EBD15318BF9CEA026F00F03B805E
:1038F0004FF0004C4CEA00204CEA012121FA03FC75
:1039000010EB0C0C1ED202F1FF325FEA1C2040EBE0
:10391000C25038BF70471CF07F0F4FEA400C18BFF1
:10392000BCF17F4F38BF7047C3F12003994008BFF7
:1039300020F00100BCF17F4F38BF7047A0F1C040BC
:1039400000F035BA4FEA3C00000A40EBC25028BFF5
:103950001CF0FF0F4FEA400CE6D018BFBCF17F4FC0
:1039600038BF7047EAE79CEA026F05D010EA5C0FA7
:1039700008BF00F00040704710B500F0D2F900BF5A
:1039800064FBBE3E401058BFC0F14040491058BFD4
:10399000C1F140418142EFF3008070474FF47F0C4A
:1039A0001CEAD0121EBF1CEAD11392EA0C0F93EA54
:1039B0000C0F00F0858090EA010F48BF42F480723E
:1039C00040F4000C41F400002CF07F4120F07F40D7
:1039D00000B58142A2EB03020FF2081CACEB504E83
:1039E000C0F100009EF800E04FEA4E0E00FB0EFC16
:1039F00038BF49004FEA2C1C02F5FA020CFB0EF30B
:103A00004FEACE1E4FEA112C4FEAC1210EEB635E46
:103A100042EB22420EFB0CFC4FEA1C5300FB03114D
:103A20004FEA112C4FEA01310EFB0CFC4FEADC4C43
:103A300000FB0C11C14228BF09184CEB03335DF8A1
:103A400004EB10EB410143EBC250B2F57C0F38BFE1
:103A5000704729D512F0F00F1CBF00F1C04000F0F4
:103A600000407047008182838485868788898B8C9B
:103A70008D8E8F919293959697999A9C9D9FA0A2D7
:103A8000A3A5A7A8AAACAEB0B2B3B5B7B9BCBEC027
:103A9000C2C5C7C9CCCED1D4D7D9DCDFE2E6E9ECC8
:103AA000F0F3F7FAFE0000004FEA400C0CF1807CC6
:103AB000BCF17E4F28BF7047B0F1C04000F077B92D
:103AC00090EA010F0CEAD11348BF42F480726245BC
:103AD00038BF634507D213F47F0F16D080EA010088
:103AE00000F00040704710B500F01BF9097EFC3E65
:103AF00000F005B880EA010000F00040704780EA5D
:103B0000010000F0004000F052B912F47F0F04BF32
:103B10000248704780EA010000F049B90000C07F08
:103B2000C10DD1F19E0206DB4FEA002343F00043B2
:103B300023FA02F07047004207D54FEA4001B1F185
:103B4000FE4F02D24FF00000704710B500F0E9F8C8
:103B500049922480002070476FEA200070470000DF
:103B600010F0004148BF4042B0FA80F310FA03F26F
:103B7000C3F19D030BD051EAC35101EB1220530650
:103B800038BF704700F1010008BF20F00100704706
:103B9000B0FA80F310FA03F2C3F19D030AD0D905FD
:103BA00001EB1220530638BF704700F1010008BF37
:103BB00020F001007047000050EA010C00F1138072
:103BC0001CF5000F58BFBCF5000F01D488427047A8
:103BD00007D710F5000F58BF11F5000F15D4884214
:103BE0007047894270471CF5000F04D5BCF5000FE3
:103BF000F7D5814270474FF0807C1CEB400F38BFF7
:103C00001CEB410F01D28142704710B500F089F8DA
:103C1000922449004FF000504FF08051FFF7B2BEA0
:103C20004FF47F0C1CEAD0121EBF1CEAD11392EA9B
:103C30000C0F93EA0C0F00F0478090EA010F48BF89
:103C400042F480724FF0004C4CEA00204CEA012113
:103C500002EB0302A0FB0113A2F50002002918BF2A
:103C600043F001035B0028BF4FEA330342EB2242DB
:103C70005FEA132C4CEBC2502EBFBCEB436FB2F586
:103C80007C0F70474FEA036CBCF1004F08BF20F077
:103C90000100B2F57C0F38BF70470BD582F0FF02F0
:103CA00012F5803FC8BF704700F1C040D8BF00F098
:103CB0000040704700F5000C5FEA4C0C48BF7047AD
:103CC000B0F1C04000F073B890EA010F0CEAD113D4
:103CD00048BF42F48072624538BF634504D280EA2F
:103CE000010000F00040704710B500F01AF800BF66
:103CF0008900013E00F007B800F009B85FEA410C06
:103D00005FEA1C6C08D080EA010000F050B85FEA5E
:103D1000400C5FEA1C6CF6D14FF00040A0F580002B
:103D200070470EF1020E2EF0030E5EF8044B244293
:103D300004D44FEA4102B2F17F4F11D84FEA400359
:103D4000B3F17F4F0CD80ED14FEAD07CB2F17F4F48
:103D50000CEB4C0C0CF1020C08BF4CEBD17C04E0DA
:103D60004FF0080C01E04FEAD17C0CEB4C0324FA35
:103D700003F404F00704B4F1040C06D20EEB840C37
:103D8000BDE810404CF0010C6047DFE80CF007087C
:103D900002024FF00040A0F5800010BD084642002E
:103DA00018BFD2F1807288BF00F0004010BDFF2123
:103DB00041EAD050C005704751EA000C00F1138071
:103DC0001CF5000F58BFBCF5000F01D481427047AD
:103DD00007D711F5000F58BF10F5000F15D4814219
:103DE0007047894270471CF5000F04D5BCF5000FE1
:103DF000F7D5884270474FF0807C1CEB410F38BFED
:103E00001CEB400F01D28842704780EA010081EA32
:103E1000000180EA0100FFF7F8BE80F0004090EA60
:103E2000010F7FF554AD81F0004100F008B80000AB
:103E300090EA010F48BF81F000413FF548AD421ABA
:103E400004D882F00042A0EB020011444FEAD052A5
:103E50004FF07F4C1CEA410FA2EBD15318BF9CEAF4
:103E6000026F4AD04FF0004C4CEA00204CEA01218E
:103E700021FA03FCB0EB0C0C0FD412F0FE0F36D07D
:103E80005FEA4C001DD5001240EBC25038BF7047AE
:103E90001CF03F0F18BF70470BE0A2F101025FEA70
:103EA0001C2040EBC25038BF70471CF07F0F18BF7A
:103EB0007047C3F12003994014BF401E20F0010059
:103EC000704780084FEA122308BF7047B0FA80FCA1
:103ED000A2EB0C02CCF1280C60FA0CF093EA122F42
:103EE00004BF00EBC25070474FEAC3707047130A1B
:103EF0005FEADC1008BF7047F6E79CEA026F04D067
:103F000010EA5C0F08BF0020704710B5FFF709FFEB
:103F100040DFF63E81F0004070470CF00F03092BA4
:103F200008BF082000F059800A2B0BD0082B18BFBF
:103F3000704708BF1CF0400F0AD04FF000004FF050
:103F4000000170471CF0400F18BF4FF00040704751
:103F50001CF0100F08D020F0704300F07F4242EABE
:103F6000D3014FEA4370704700F0604021F07F4278
:103F700042EA000201F07F4040EA727070474FF061
:103F8000FF0C4CF4E06C1CEA11531CBF9CEA030CC0
:103F90009445C2BFDA4201EB02517047002B0DD0AD
:103FA000BCF1000F0FD0002A01F00041A4BF41F086
:103FB000E04141F07F614FF00000704701F00041A7
:103FC0004FF00000704750EA01334FF09B0C18BFD0
:103FD0004CF0806C7EF4E0AF70471CF4801F11D071
:103FE0001CF4E02F03D06FEACC31490070474FF04A
:103FF0004050EFF3008222F0704242EA000282F366
:10400000008870474FF0000070470000000000007B
:104010000000010203040607080900000000010275
:1040200003040000000000004FBB610567ACDD3FEA
:10403000182D4454FB21E93F9BF681D20B73EF3FCF
:10404000182D4454FB21F93FE2652F227F2B7A3C47
:10405000075C143326A6813CBDCBF07A8807703C00
:10406000075C143326A6913CC4EB98999999C9BF73
:10407000711623FEC671BCBF6D9A74AFF2B0B3BFA8
:104080009AFDDE522DDEADBF2F6C6A2C44B4A2BF68
:104090000D5555555555D53FFF8300922449C23FD4
:1040A0006E204CC5CD45B73F513DD0A0660DB13F08
:1040B000EB0D76244B7BA93F11DA22E33AAD903F1A
:1040C000000000000000000000004054FB21F93F08
:1040D0003163621A61B4D03D0000601A61B4D03D12
:1040E0007370032E8A19A33B0000002E8A19A33B8C
:1040F000C14920259A837B390000000000000000A0
:104100006E83F9A22915444ED15727FCC0DD34F542
:10411000999562DB4190433CAB6351FE61C5BBDEC8
:104120003A6E24B7E0D24D42EA2E49061C92D109DC
:104130001CEB1DFE3EA729B1F53582E88444BB2E59
:1041400026709CE9417E5FB439D69139F4395383A6
:104150008B5F849C3B28F9BDFF97F81F0F9805DE05
:104160008B112FEF1F6D0A5ACF7E366DB709CB2703
:10417000663F464F2DEA5F9EC7BA27757BF1E5EB98
:10418000F739073DEA92528AB15FFB6B085D8D1FDC
:104190007AFE10111111C13F37D60684F464963FA0
:1041A000280356C9226D6D3F0165F2F2D844433FA2
:1041B000A69237A0887E143F735360DBCB75F3BEA5
:1041C000FE41B31BBAA1AB3F93846EE9E326823F65
:1041D0001583E0FEC8DB573F68108D1AF726303F85
:1041E000E9A7F0320FB8123FD47ABF74702AFB3EB1
:1041F0001042000800000020F40000002801000820
:1042000004430008F40000203412000044010008B8
:104210000001000000000443000000000000000056
:1042200000000000000000002C00002044000020DE
:10423000AC00002000000000000000000000C841A9
:104240000000C84100000000000000000000FE4225
:104250000000FE420000D041000000000000D041FC
:104260000000D0410000D0C10000D0410000D0C10A
:104270000000C8C10000D0410000C8C10000D0410A
:104280000000803F000000000000803F0000FE4270
:104290000000FE42000000000000000000000000DE
:1042A000000000000000000000000000000000000E
:1042B000000000007F0000007F0000000000000000
:1042C00000000000000000000000000000000000EE
:1042D00000000000000000000000000000000000DE
:1042E000000000000000C8410000C8410000FE427C
:1042F0000000FE420100000010000000000000006D
:044300000024F400A1
:04000005080000ED02
:00000001FF
