:020000040800F2
:10000000F8120020890100087F1500085B14000821
:100010007D150008F3020008491C000800000000DC
:10002000000000000000000000000000B9170008F8
:100030005503000800000000DF150008BB1700088A
:10004000A3010008A3010008A3010008A301000800
:10005000A3010008A3010008A3010008A3010008F0
:10006000A3010008A3010008A3010008A3010008E0
:10007000A3010008A3010008A3010008A3010008D0
:10008000A3010008A3010008A3010008A3010008C0
:10009000A3010008A3010008A3010008A3010008B0
:1000A000A3010008A3010008A3010008A3010008A0
:1000B000A3010008A3010008A3010008A301000890
:1000C000A3010008A3010008A3010008A301000880
:1000D000A30100083D1C0008A3010008A3010008BB
:1000E000A3010008A3010008A301000800F002F822
:1000F00000F03AF80AA090E8000C82448344AAF188
:100100000107DA4501D100F02FF8AFF2090EBAE885
:100110000F0013F0010F18BFFB1A43F0010318473B
:10012000C83D0000E83D0000103A24BF78C878C1FF
:10013000FAD8520724BF30C830C144BF04680C60ED
:10014000704700000023002400250026103A28BF35
:1001500078C1FBD8520728BF30C148BF0B60704739
:100160001FB51FBD10B510BD00F08EF81146FFF78A
:10017000F7FF02F05FFB00F0ACF803B4FFF7F2FF0B
:1001800003BC00F0AFF80000094880470948004769
:10019000FEE7FEE7FEE7FEE7FEE7FEE7FEE7FEE737
:1001A000FEE7FEE704480549054A064B7047000094
:1001B0001D180008ED000008F8020020F8120020C9
:1001C000F80A0020F80A00204FF000020429C0F0CD
:1001D000128010F0030C00F01B80CCF1040CBCF179
:1001E000020F18BF00F8012BA8BF20F8022BA1EBCB
:1001F0000C0100F00DB85FEAC17C24BF00F8012BB0
:1002000000F8012B48BF00F8012B70474FF00002A7
:1002100000B5134694469646203922BFA0E80C50FC
:10022000A0E80C50B1F12001BFF4F7AF090728BFD7
:10023000A0E80C5048BF0CC05DF804EB890028BF53
:1002400040F8042B08BF704748BF20F8022B11F07C
:10025000804F18BF00F8012B7047704770477047F8
:1002600010B500F009F8006810BD10B5044600F0A4
:1002700003F8046010BD0000004870479802002099
:1002800000487047980200207546FFF7F9FFAE4618
:1002900005006946534620F00700854618B020B592
:1002A000FFF780FFBDE820404FF000064FF0000749
:1002B0004FF000084FF0000B21F00701AC46ACE80E
:1002C000C009ACE8C009ACE8C009ACE8C0098D467B
:1002D000704710B50446AFF300802046BDE81040DB
:1002E000FFF74BBF01491820ABBEFEE72600020016
:1002F0007047FEE72DE9F0410446C06B4FF400055E
:10030000A84201DA80F00040216E03F0D3FA1FD931
:10031000E06BA84201DA80F00040E16D03F0CAFB17
:1003200001D2002013E0E06D216E064603F0FEFBD3
:100330000746E06BA84201DA80F00040314603F046
:10034000EAFB394603F0C0F9E16903F0E7FAE0613E
:10035000BDE8F081704772B6FEE710B590F8211045
:100360000022022905D00421816380F82020012089
:1003700010BD01680B6823F00E030B6001680B6869
:1003800023F001030B6090F84030C46B012101FAA7
:1003900003F3636080F8211080F82020104610BD20
:1003A00010B590F821100024022903D004218163A4
:1003B00001243DE001680A6822F00E020A6001682B
:1003C0000A6822F001020A601A4A0168914201D1CA
:1003D000012121E0174A1432914201D110211BE082
:1003E000144A2832914201D1891515E0114A3C3254
:1003F000914201D189140FE00E4A5032914202D14C
:100400004FF4803108E00B4A6432914202D14FF43C
:10041000801101E04FF08071064A083A51600121D5
:1004200080F82110002180F82010416B01B188472D
:10043000204610BD0800024070B5044600F0FEF8EA
:100440000546601C02D004480078044400F0F6F829
:10045000401BA042FAD370BDB40000202DE9F84F34
:10046000DFF8B891002409F1040A0AF1040B2346CD
:100470000F270BF1040EC9E00125A5402A40AA422E
:100480007DD1674ED1F804C0ACEB0608B44532D03C
:1004900014DCBCF1030F3AD009DCBCF1000F2AD008
:1004A000BCF1010F1CD0BCF1020F31D11DE0BCF139
:1004B000110F17D0BCF1120F2AD119E0B8F5881F1F
:1004C00019D006DCB8F5803F15D0B8F5801F1FD1D4
:1004D00011E0B8F5001F0ED0B8F5041F18D10AE0DE
:1004E000CB6815E0CB681B1D12E0CB6808330FE02A
:1004F000CB680C330CE08B682BB1012B4FF0080359
:1005000003D0456104E0042302E0056100E000231C
:10051000FF2A01D8064601E000F104064FEA8405EF
:1005200001D9A5F12005D6F8008007FA05FC28EAD4
:100530000C0803FA05F548EA0508C6F800804D687E
:10054000ED0062D5374DAE6946F00106AE61AD698A
:1005500024F0030605F001050095334D06EB050C6C
:10056000DCF80850A607360F07FA06F825EA080552
:10057000DFF8B880404503D14FF0000817E044E0B1
:10058000DFF8AC80404502D14FF001080FE0DFF802
:10059000A480404502D14FF0020808E0DFF89880BF
:1005A000404502D14FF0030801E04FF0040808FA7B
:1005B00006F848EA0508CCF808804D68D9F80060CC
:1005C000ED034D4601D5164300E096432E604D687D
:1005D000DAF80060AD03554601D5164300E09643B6
:1005E0002E604D68DBF80060ED025D4601D51643D4
:1005F00000E096432E604D68DEF80060AD0275465F
:1006000001D5164300E096432E60641C0D682A460F
:10061000E5407FF431AFBDE8F88F000000040140F1
:1006200000001110001002400000014000080140CD
:10063000000C014000100140001401400148806896
:1006400070470000B400002002488168027811441D
:1006500081607047B4000020074810B5016841F080
:1006600010010160032000F075F80F2000F006F87B
:1006700000F024F8002010BD0020024070B50D4DA0
:1006800004464FF47A712878B1FBF0F00A49096802
:10069000B1FBF0F000F0ECFA48B9102C07D20022C0
:1006A0002146501E00F036F800206C6070BD01201D
:1006B00070BD0000B4000020C00000200C4808B548
:1006C000816941F001018161816901F001010091BD
:1006D000C16941F08051C161C06900F08050009053
:1006E0000448416821F0E06141F00071416008BDBB
:1006F0000010024000000140002809DB00F01F024A
:10070000012191404009800000F1E020C0F8001173
:1007100070470000F0B40E4B1B680C46C3F3022375
:10072000C3F10705042D00D90425191D072901D29D
:10073000002300E0DB1E012606FA05F1491E2140D8
:1007400099409E40761E16403143F0BC01F091BAAC
:100750000CED00E0064900F0070208684FF6FF03C1
:10076000184040EA0220034A104308607047000026
:100770000CED00E00000FA052DE9F0470F460500FA
:1007800061D0434E306800F00700B84209D23068AB
:1007900020F0070038433060306800F00700B842AE
:1007A00051D128683B4C810712D5400703D56068BA
:1007B00040F4E06060602878000703D5606840F48A
:1007C000605060606068A96820F0F00008436060D5
:1007D0002878C00728D06868012810D0216802282E
:1007E00010D0890700292EDA616821F00301014346
:1007F0006160FFF723FF804641F288390DE02168F0
:100800008903EFE78901EDE7FFF718FFA0EB080187
:10081000494502D90320BDE8F0876068696800F0A7
:100820000C00B0EB810FEFD1306800F00700B84248
:100830000BD9306820F0070038433060306800F092
:100840000700B84201D00120E5E72878400705D528
:100850006068E96820F4E060084360602878000779
:1008600006D56068296920F4605040EAC1006060E4
:1008700000F038F86168084AC1F30311515CC840C0
:100880000649086006480068FFF7F8FE0020C2E746
:100890000020024000100240063D0008C000002079
:1008A000B80000200448054900684968044AC1F3BB
:1008B0000221515CC8407047C00000200010024077
:1008C000163D00080448054900684968044AC1F318
:1008D000C221515CC8407047C00000200010024097
:1008E000163D000812A185B00FC98DE80F0014A0B5
:1008F000144A006804905168134801F00C03042B5B
:1009000010D0082B0ED1C1F38343C9031DF8030097
:100910000AD5516804AAC1F34041515C0A4A5043C8
:10092000B0FBF1F005B0704708494843FAE7000012
:1009300002030405060708090A0B0C0D0E0F101020
:10094000010200000010024000127A0000093D0080
:100950002DE9F84F040070D02078C04DC00749D071
:100960006868C0F38100012807D06868C0F381007F
:10097000022809D16868C00306D52868800339D5E4
:1009800060680028E7D035E06068B0F5803F0BD0A4
:1009900010B1B0F5A02F11D0286820F48030286065
:1009A000286820F4802002E0286840F48030286025
:1009B000606890B1FFF742FE06460AE0286840F4FE
:1009C00080202860F0E700BFFFF738FE801B642816
:1009D00073D828688003F7D50CE0FFF72FFE064692
:1009E00005E000BFFFF72AFE801B6428F0D82868C6
:1009F0008003F7D420789A4E80074FF001094FF01A
:100A0000000839D5686810F00C0F07D06868C0F38B
:100A10008100022809D16868C00306D428688007CD
:100A200014D52069012808D110E02069B0B1C6F8BA
:100A30000090FFF703FE074605E00AE1FFF7FEFD21
:100A4000C01B0228C4D828688007F7D528686169C8
:100A500020F0F80040EAC10028600DE0C6F80080F0
:100A6000FFF7ECFD074604E0FFF7E8FDC01B022896
:100A700023D828688007F7D4207800072CD5794838
:100A8000A169D9B1C0F80090FFF7D8FD074604E08E
:100A9000FFF7D4FDC01B02280FD8686A8007F7D57E
:100AA00071484FF4FA510068B0FBF1F0009000BFBC
:100AB0000098411E0091FAD20EE080E0C0F800805C
:100AC000FFF7BCFD074604E0FFF7B8FDC01B022896
:100AD00075D8686A8007F7D42078400760D5E86940
:100AE0000027C00008D4E86940F08050E861E86958
:100AF000012700F0805000905C480168C90513D4BC
:100B00000168834641F480710160FFF797FD8246DA
:100B100006E000BFFFF792FDA0EB0A0064284ED864
:100B2000DBF80000C005F5D5E06801280AD008B15F
:100B3000052813D0286A20F001002862286A20F0D6
:100B4000040002E0286A40F001002862E06841F2F7
:100B5000883B98B1FFF772FD82460BE0286A40F0AF
:100B600004002862EEE700BFFFF768FDA0EB0A0172
:100B700059455AD8286A8007F6D50CE0FFF75EFD84
:100B8000824605E0FFF75AFDA0EB0A0159454CD813
:100B9000286A8007F6D41FB1E86920F08050E86128
:100BA000E06988B36968C1F38101022944D0022851
:100BB000C6F8608004D0FFF741FD044638E034E019
:100BC000FFF73CFD074604E0FFF738FDC01B022895
:100BD0002BD828688001F7D4206AB0F5803F05D172
:100BE0006868A16820F4003008436860D4E908010F
:100BF0000843696821F4741108436860C6F860907E
:100C0000FFF71CFD044606E025E000BFFFF716FDD8
:100C1000001B022809D828688001F7D51BE000BF17
:100C2000FFF70CFD001B022802D90320BDE8F88F56
:100C300028688001F4D40EE00128F7D06868226AA1
:100C400000F48031914204D1616A00F4701088424E
:100C500001D00120EAE70020E8E700000010024090
:100C60000000424280044242C00000200070004068
:100C700010B5401EB0F1807F01D3012010BD4FF0B0
:100C8000E02460610F21601700F0F3FF0020A061F5
:100C900007202061002010BD70B590F83C20012A8B
:100CA00026D0012480F83C40022280F83D200368D1
:100CB0005A689D6822F070060A6832435A600D4BEC
:100CC00002689A4208D0B2F1804F05D00A4B9A428E
:100CD00002D00A4B9A4204D1496825F08003194397
:100CE000916080F83D40002180F83C10084670BDBE
:100CF000022070BD002C01400004004000080040AC
:100D000010B5040003D094F83D0010B107E00120B5
:100D100010BD002084F83C00204600F01FF802209F
:100D200084F83D00211D206800F07AFD012084F840
:100D3000460084F83E0084F83F0084F8400084F8C0
:100D4000410084F8420084F8430084F8440084F8A9
:100D5000450084F83D00002010BD000008B5006883
:100D60000649884208D10648C16941F00401C161C1
:100D7000C06900F00400009008BD000000080040B9
:100D80000010024090F83D10012901D00120704769
:100D9000022180F83D1000680B49884208D0B0F16C
:100DA000804F05D00949884202D00949884204D1C0
:100DB000816801F00701062903D0016841F00101B3
:100DC0000160002070470000002C0140000400403A
:100DD0000008004070B5044690F83C00012817D088
:100DE000012584F83C50022084F83D002068826888
:100DF00022F0770222F47F4282600868502830D0C7
:100E00000DDC20284DD005DC98B310283BD148E0FC
:100E1000022070BD302844D0402834D139E0602809
:100E200028D0702806D0B0F5805F2CD0B0F5005FD8
:100E300029D10AE0CB68D1E90121206800F033FD17
:100E40002068816841F0770109E0CB68D1E9012190
:100E5000206800F028FD2068816841F480418160AD
:100E600011E0CA684968206800F0D2FD502120686E
:100E700007E016E0CA684968206800F0DAFD6021E2
:100E8000206800F01AFD84F83D50002084F83C00F2
:100E900070BDCA684968206800F0BAFD402120682A
:100EA000EFE7226801461046EBE7000000B585B089
:100EB0000021009101910291039100680B49884241
:100EC00011D10B48816941F008018161806969464F
:100ED00000F008000490C0200090022001900390D0
:100EE0000448FFF7BBFA05B000BD00000008004051
:100EF00000100240000C014070B5044690F83C0020
:100F00000D4601280AD0012084F83C0042B1042A91
:100F100018D0082A2AD00C2A4DD139E0022070BD01
:100F2000206800F0D3FC2068816941F008018161EC
:100F30002068816921F004018161206881692A6942
:100F4000114311E0206800F0E9FC2068816941F458
:100F5000006181612068816921F48061816120687C
:100F600081692A6941EA0221816124E0206800F058
:100F700001FD2068C16941F00801C1612068C169B3
:100F800021F00401C1612068C1692A69114311E09F
:100F9000206800F01BFD2068C16941F40061C16157
:100FA0002068C16921F48061C1612068C1692A6932
:100FB00041EA0221C161002084F83C0070BD10B5F7
:100FC000040003D094F83D0010B107E0012010BDEB
:100FD000002084F83C00204600F01EF8022084F82F
:100FE0003D00211D206800F01BFC012084F8460014
:100FF00084F83E0084F83F0084F8400084F8410003
:1010000084F8420084F8430084F8440084F84500E2
:1010100084F83D00002010BD7047000010B5044664
:10102000022249B104290ED0082913D094F84100B6
:10103000012816D0012010BD94F83E000128F9D1F6
:1010400084F83E200FE094F83F000128F2D184F8A4
:101050003F2008E094F840000128EBD184F84020BC
:1010600001E084F841200122206800F00FFC0F49C4
:101070002068884203D1426C42F4004242642068F6
:10108000884208D0B0F1804F05D00949884202D08B
:101090000849884204D1816801F00701062903D07C
:1010A000016841F001010160002010BD002C0140E9
:1010B000000400400008004070477047F8B502681F
:1010C00004461068D168536910F00F0F4FF0000507
:1010D00053D003F0010601F4907737435FD0C20785
:1010E00005D0CA0503D5226C42F0010222644207F2
:1010F00005D5DA0703D0226C42F00202226482078F
:1011000005D5DA0703D0226C42F0040222640207FC
:1011100007D501F02002324303D0226C42F00802CE
:101120002264226C002A34D0800604D5880602D5B9
:10113000204600F0B0FC20684069216CC0F38010AC
:10114000090700D430B3204600F08DFC20684169C7
:1011500049061BD5416921F040014161A06BA8B14E
:1011600058494163A06BFFF71BF9002811D0A06B11
:10117000416B01B0BDE8F040084783060FD58B06F0
:101180000DD52046BDE8F84000F085BC2046FFF7AD
:1011900094FFF8BD2046FFF790FF2564F8BD266B4D
:1011A0002023012E52D1C60650D5CE064ED510684A
:1011B00050680090506940062AD5A16B08684068C5
:1011C0000004000CEAD0A68D8642E7D9E085886944
:1011D000202818D0D06820F48070D0602068416941
:1011E00021F0010141612068416921F04001416124
:1011F00084F83E3025632068C16821F01001C16089
:10120000A06BFFF7AAF8A08DE18D401A81B219E01A
:10121000A08DE18D401A81B2E08D0028BED000295A
:10122000BCD0D06820F49070D0602068426922F071
:101230000102426184F83E3025632068C26822F0D2
:101240001002C2602046FFF737FFF8BD05062BD518
:101250000D0629D594F83D002128F6D1A068B0F5F7
:10126000805F01D12069B0B1206A411C21622168F0
:1012700000784860E08C401E0004000CE084E4D15B
:101280002068C16821F08001C1602068C16841F018
:101290004001C160F8BD206A0088C0F308005060BA
:1012A000206A801C2062E5E74006F3D54806F1D5A8
:1012B000D168204621F04001D16084F83D3000F033
:1012C000CBF8F8BD571A000870B5040004D094F8A4
:1012D0003D00002510B106E0012070BD84F83C50AF
:1012E000204600F023F8242084F83D002068C168DF
:1012F00021F40051C160204600F028FC20680169FB
:1013000021F4904101612068416921F02A01416185
:101310002068C16841F40051C1602564202084F830
:101320003D0084F83E00002070BD000030B585B05F
:1013300000240094019402940394006818498842A0
:101340002CD11848816941F480418161816901F49F
:1013500080410491816941F0040181618069124DED
:1013600000F0040004904FF40070009002200190FF
:101370000320039069462846FFF770F82815CDE949
:101380000004694628460294FFF768F800221146D7
:101390002520FFF7BFF92520FFF7AEF905B030BDD6
:1013A00000380140001002400008014090F83E3033
:1013B000202B0ED159B152B190F83C30012B08D0FE
:1013C000012380F83C300023036300F01BBC0120A4
:1013D00070470220704700002DE9F041006819496C
:1013E00088422CD118490878662821D14878662887
:1013F0001ED191F8210065281AD191F822006528A4
:1014000016D1124A124C02200B180D5C9E78303D0A
:101410005B7805EBC50707EB051503EB830306EBCC
:10142000850504EB43032B4408C2001D2128EBDB98
:10143000232205490748FFF7B9FF0028F8D0BDE887
:10144000F081000000380140E40100208C00002001
:10145000F0FDFFFF540200207047FEE70D4808B57D
:10146000816941F020018161816901F020010091D1
:10147000816941F004018161816901F004010091F9
:10148000816941F008018161806900F008000090E5
:1014900008BD00000010024010B58EB00024079473
:1014A000089409940A940B941C2168460C94FEF746
:1014B000ADFE2348214901604721C0E9011444F6EB
:1014C0001F61C0E9031480218161FFF719FC08B195
:1014D000FEF741FF4FF48050079007A91848FFF727
:1014E00079FC08B1FEF737FF1548FFF768FD08B132
:1014F000FEF731FF0B940BA911480C94FFF7CCFBBE
:1015000008B1FEF728FF6020CDE900040294002214
:1015100069460B480494FFF7EFFC08B1FEF71BFF88
:10152000042269460648FFF7E7FC08B1FEF713FFFF
:101530000348FFF7BBFC0EB010BD000000080040E0
:101540000C0200200C4810B50A4901604FF4E1314B
:101550004160002181600C22C160C0E904128161F8
:10156000C161FFF7B1FE002803D0BDE81040FEF7CF
:10157000F2BE10BD0038014054020020FEE7FEE735
:1015800070B50468154669B1042915D0E06A0829C8
:101590001CD002F07BF9294602F0C0F902F056F99E
:1015A000206470BDE06A02F071F9294602F0B6F9D4
:1015B00002F04CF9606370BDE06A02F067F92946F9
:1015C00002F0ACF902F042F9A06370BD02F05EF9DE
:1015D000294602F0A3F902F039F9E06370BD7047C3
:1015E00070B50446C160B0F848001546C00502D584
:1015F000204601F0D1F8A5612946E06802F096FA8C
:10160000E0630546216C02F091FA2063B5F5000F06
:1016100001DB284601E085F00040216D02F04AFA26
:101620007DD8E56B2168284602F078F92062E069F0
:10163000294601F0DBFFE06194F84800000703D57C
:10164000204601F071F804E0216BA06802F066F911
:10165000A06294F84800800602D52046FEF74AFEB4
:1016600094F84800800711D5E16CE06902F022FA95
:1016700001D2E06CE061E06CE16980F0004002F0D2
:1016800019FA03D2E06C80F00040E061E169606823
:1016900002F044F9606294F84800C0060BD5E16B93
:1016A000A06D02F007FA06D2616DE06B02F002F95C
:1016B00001D20020606294F84800000605D5A16AB6
:1016C00004F1680001F09CF8A062616A206A01F0F0
:1016D0008DFFA16A01F08AFFE062014694F848009C
:1016E000400604D504F1780001F08AF8E06294F82D
:1016F0004800400716D5616CE06A02F0DBF901D2C0
:10170000606CE062606CE16A80F0004002F0D2F947
:1017100008D2606C80F00040E06203E0FFE7204602
:1017200001F0A6F9A0696061E0682061206B606348
:10173000E06B2064E06A70BD2DE9F0410F461D4664
:10174000164604469021DDF81880FEF73DFD002086
:10175000C4F88C0027606660A560C4F84880BDE8C6
:10176000F081102919D008DC092911D2DFE801F035
:1017700010221110181010101300202915D0402924
:1017800010D0802914D0B1F5807F01D1C0F8882015
:101790007047C26470474266704742658365704710
:1017A00042647047C0F884207047C2650366704782
:1017B00042677047026570477047FEF745BF30B516
:1017C0008FB028216846FEF721FD14210AA8FEF7F4
:1017D0001DFD01210804CDE900100024029402251A
:1017E0000491CDE907504FF4E01009906846FFF7E7
:1017F000AFF808B172B6FEE70F20CDE90A054FF445
:101800008060CDE90C4002210AA80E94FEF7B4FFD7
:10181000002801D072B6FEE70FB030BD704700005F
:10182000F0B50268164B174C174D4FF080479842A1
:1018300005D0B84203D0A04201D0A84203D122F083
:1018400070064A683243984205D0B84203D0A0429D
:1018500001D0A84203D122F44074CA6822434C69E3
:1018600022F08002224302608A68C2620A688262B1
:10187000984201D10969016301214161F0BD000075
:10188000002C0140000400400008004010B501F0A9
:101890001F030121046A99408C430462016A9A4043
:1018A0001143016210BD10B5846842EA032224F49A
:1018B0007F440A432243826010BD826822F0700296
:1018C0000A4342F0070181607047000030B5026AA8
:1018D00022F001020262026A4368846924F07305FF
:1018E0000C682C4322F002058A682A430A4DA8425C
:1018F0000BD122F00805CA6823F440732A434D69CE
:1019000022F004021D438B692B43436084614968C4
:101910004163026230BD0000002C014030B5026A14
:1019200022F010020262026A436884690D6824F49E
:10193000E64444EA05248D6822F0200242EA0512BA
:101940000B4DA8420ED1CD6822F0800242EA05126A
:101950004D6923F4406343EA85038D6922F0400218
:1019600043EA85034360846149688163026230BD54
:10197000002C014030B5026A22F480720262036AD0
:101980004268C46923F4007324F073050C682C4387
:101990008D6843EA05230C4DA8420ED1CD6823F48F
:1019A000006343EA05234D6922F4405242EA0512DE
:1019B0008D6923F4806342EA05124260C46149687C
:1019C000C163036230BD0000002C014030B5026AE3
:1019D00022F480520262046A4268C3690D6823F4EB
:1019E000E64343EA05238D6824F4005444EA0534B1
:1019F000064DA84204D14D6922F4804242EA851284
:101A00004260C36149680164046230BD002C01403A
:101A100010B5036A046A24F001040462846924F0A6
:101A2000F00444EA021423F00A020A4384610262C9
:101A300010BD10B5036A23F0100303628369046AC2
:101A400023F4704343EA023224F0A00343EA011175
:101A50008261016210BD10B5406A0021C185C18458
:101A6000FFF72BFB10BD0168CA6822F49072CA60B0
:101A700001684A6922F001024A61016B012904D11F
:101A80000168CA6822F01002CA60202180F83E1066
:101A900000210163704708B590F83E10222901D05B
:101AA000022008BD82684FF480539A4201D1016937
:101AB00021B1816A9A421BD04AB10AE00268816A68
:101AC0005268C2F308020A80816A891C08E0026930
:101AD00072B10268526802F07F020A70816A491C82
:101AE0008162C18D491E0904090CC18503D019E02A
:101AF00002685268F1E70168CA6822F02002CA60F1
:101B00000168CA6822F48072CA6001684A6922F0DA
:101B100001024A61202180F83E10016B012903D0A7
:101B2000FFF75AFC002008BD002101630168CA6864
:101B300022F01002CA6001680A68D20602D50A685B
:101B400049680091818DFFF7B7FAEBE770B504465D
:101B500000680169E26821F4405111430161216983
:101B6000A0680843616908432168CA6841F20C63B0
:101B70009A430243CA6020684169A26921F4407116
:101B8000114341611E492068884202D1FEF79AFE46
:101B900001E0FEF787FE00EBC00101EB0012606878
:101BA00064218000B2FBF0F3B3FBF1F36FF0180691
:101BB0007343B2FBF0F5B2FBF0F605EB830532237D
:101BC00003EB0515B5FBF1F5B6FBF1F605F0F005F5
:101BD00005EB0615B2FBF0F6B2FBF0F0B0FBF1F04E
:101BE0006FF01802504306EB800003EB0010B0FBCF
:101BF000F1F0216800F00F002844886070BD0000FB
:101C00000038014081628285C28500210164222260
:101C100080F83E2080F83C100168CA6842F4807267
:101C2000CA6001684A6942F001024A610068C168FD
:101C300041F02001C1600020704700000148FFF71B
:101C40003DBA000054020020FEE7490050EAC120DE
:101C500018BF04204A0D18BF40F0010040F2FF7287
:101C6000B2EB515F08BF40F00200012808BF052019
:101C700070470907090E002804DB00F1E02080F816
:101C80000014704700F00F0000F1E02080F8141DF0
:101C9000704700002DE9F74F144694B00021C4E9C5
:101CA00002111599079121F00045C9498D4206DCC2
:101CB0001599C4E9000117B00020BDE8F08FC549AF
:101CC000DFF814A3A9423CDD0799C44E0029C44F94
:101CD000C44A1599534619DD01F072FB554506D0EB
:101CE000C14AC24B01F06CFBC4E900010AE04FF0AD
:101CF000D352BE4B01F064FB32463B4601F060FB21
:101D0000C4E9000117B00120BDE8F08F00F032FFF8
:101D1000554506D0B44AB54B00F02CFFC4E900018C
:101D20000AE04FF0D352B14B00F024FF32463B465D
:101D300000F020FFC4E9000117B04FF0FF30BDE80C
:101D4000F08FAB49A942159978DB21F00041834619
:101D50008846A84AA84B01F0F3F90022A74B00F0EF
:101D600009FF01F057F9099001F083F906460F4683
:101D70009C4A534601F0E4F943465A4601F014FBED
:101D800080468A46984A994B3046394601F0D8F940
:101D90002A0D01250B924246534601F005FB032D07
:101DA000C4E9000139D00B98C1F30A51401A05EB80
:101DB00045111139814230DA9148C346784400EB2D
:101DC0000510CDF80CA00C90D0E900233046394620
:101DD00001F0B6F902460B46049106905846039965
:101DE00001F0EEFA80468A4602460B4658460399B1
:101DF00001F0E6FA049B069A01F0E2FA83460C9899
:101E000003913946D0E90223304601F099F95A4648
:101E1000039B01F0D5FA6D1CBDE707980028A2BF0F
:101E2000099817B0BDE8F08F616881F000416160EA
:101E3000099817B04042BDE8F08FFFE78446159837
:101E4000C1F31301C0F30A50A0F2F5304FEA601855
:101E500000F01F06C6F120001390002006900790A6
:101E600041F4801E05206D4676B1664A08EB0001FC
:101E70007A4452F8213002EB8101B3404A68139949
:101E800022FA01F1194305E05F4908EB00027944A9
:101E900051F82210A1FB0E27A1FB0C131A449A4201
:101EA00034BF0123002303EB070A05EB8003D3E9CA
:101EB00001B70F448F4234BF0121002193448B446A
:101EC00011B1934502D903E0934501D2012100E00D
:101ED0000021C3E901B7514445F82010011EA0F1CB
:101EE0000100C1DC0298059F00F10050800F1290A4
:101EF0000298DDE90356800001F0BBF883462846CE
:101F00000D9101F0CDF86FF01D0201F0B6FECDE9A4
:101F10000E01304601F0C4F86FF03D0201F0ADFE55
:101F200080468A46384601F0BBF86FF05D0201F04A
:101F3000A4FE074642465346119100F01BFEDDE920
:101F40000E2300F017FE5A460D9B00F013FE0025ED
:101F50000E465A4628460D9B01F032FADDE90E2363
:101F600001F02EFA4246534601F02AFA3A46119BF6
:101F700001F01AFADFF898A0244A534601F0E0F87D
:101F800007468846234A244B3146284601F0D8F8B4
:101F90003A46434600F0EEFD074688464FF0A84219
:101FA00053463146284601F0CBF83A46434600F006
:101FB000E1FD159A12F0004F04D0129A81F0004111
:101FC00052421292C4E90001129817B0BDE8F08F96
:101FD000FB21E93F7CD90240FB21F93F7370032EBE
:101FE0008A19A33B000040543163621A61B4D03DAA
:101FF000FB21394183C8C96D305FE43F0000E03FF9
:10200000002000007C1F00005E1F0000182D4454BB
:10201000FB21F93D3326A611460B113C2DE9F04179
:102020004F1E00EBC7010446D1E9000115461E46CC
:1020300037F006020DD02A46334601F081F87F1EA4
:1020400004EBC703D3E9002300F094FD37F0060248
:10205000F1D1022F25D0042F13D0062F18BFBDE8D1
:10206000F0812A46334601F06BF8D4E90A2300F0E8
:1020700081FD2A46334601F063F8D4E9082300F0D5
:1020800079FD2A46334601F05BF8D4E9062300F0D7
:1020900071FD2A46334601F053F8D4E9042300F0D9
:1020A00069FD2A46334601F04BF8D4E9022300F0DB
:1020B00061FD2A46334601F043F8D4E90023BDE828
:1020C000F04100F057BD00002DE9F04D04468CB002
:1020D000904821F00047164698460D4609918742E0
:1020E00006DA2046294600F095FF002800F0AE8071
:1020F0008948B8421CDC09980028BCBF85F000451F
:1021000088F00048854A864B2046294601F04CF964
:1021100004460D46324643468248834901F050F951
:1021200022462B4600F026FD002604460D46B0460A
:1021300022462B461046194601F002F88B4682468D
:1021400002460B4600F0FCFF0246089077480B461B
:10215000009106217844FFF761FFCDE90310744830
:1021600006217844009B089AFFF758FF52465B46C9
:1021700000F0E6FFCDE9051052465B4620462946B1
:1021800000F0DEFF07910090DDE90310DDE9053284
:1021900000F0F0FC079B009A00F0D2FF3246434665
:1021A00000F0E8FC52465B4600F0CAFF3246434668
:1021B00000F0E0FC80460E465E4A5F4B07990098AF
:1021C00000F0BEFF4246334600F0D4FC82468B4608
:1021D00022462B4600F0CEFC80464F480E46B842C1
:1021E00014985BDC00F045FF0746424633460591F4
:1021F00000F0C0FCCDE901104246334610461946B6
:1022000000F09EFFDDE9013200F070FD52465B46B2
:1022100001F0D6F822462B4601F0C6F8012201F063
:102220002CFD3A46059B01F0BFF804460D4609987F
:10223000022101EAA070C0F1010000F01AFF0CB009
:1022400022462B46BDE8F04D00F07ABF1498401CA2
:10225000384320430BD01498012812D00CB02246EA
:102260002B46BDE8F04D0020344900F03FBD0CB0D6
:1022700025F000432246BDE8F04D0020304900F033
:1022800035BD20462946FFF7E0FC042808BF00F0D2
:1022900065F820460CB02946BDE8F08D012802BF44
:1022A00040460CB0BDE8F08D00270B463A4620466C
:1022B000294601F079F852465B4601F075F804466C
:1022C0000D464246334600201C4900F00FFD834670
:1022D0003A4688463346104600F032FF0022184B3B
:1022E00000F048FC06468A4622462B4638464146C0
:1022F00000F026FF3246534600F03CFC5A46434667
:1023000000F01EFF0CB03A464346BDE8F04D00F029
:1023100031BC00000000303E2894E53F182D4454A5
:10232000FB21E93F075C143326A6813C301D0000E9
:10233000521D0000635555555555D53F0000F0BF5F
:102340000000F03F012201F098BC00F013BC002215
:1023500013461046114600F0C9BC0000024A002096
:10236000110701F08ABC000001FDFFFF2DE9F84FC5
:1023700004460D4621F0004000917349814211DC72
:102380007249884201DC06D12CB120462946BDE8BD
:10239000F84FFFF7D7BF6E48002DCCBF6D496E498F
:1023A000BDE8F88F6D49814211DD6D498142D8BF8A
:1023B0004FF0FF366DDD20462946FFF746FC042826
:1023C00008BFFFF7CBFF20462946BDE8F88F6549D7
:1023D000654F25F00045814233DD6449814219DDB6
:1023E000002632464FF080432046294600F0C2FBCB
:1023F00080468A4601222046294601F03EFC002202
:102400003B4600F0DDFF4246534600F06FFC0446B9
:102410000D463EE001260022BA463B4620462946AC
:1024200000F0A8FB80460F4600225346204629466E
:1024300000F0C6FF42463B4600F058FC04460D46FD
:1024400027E04B4981421BDDDFF828A1022600224C
:1024500053462046294600F073FE00223B4600F01A
:1024600089FB80460F46002253462046294600F04D
:10247000A7FF42463B4600F039FC04460D4608E003
:10248000032622462B4600203B4900F02FFC044641
:102490000D4622462B461046194600F051FE8B464B
:1024A000824602460B4600F04BFE07460246334882
:1024B00088460B4606217844FFF7B0FD52465B463E
:1024C00000F03EFE82462E488B463A4643460521A2
:1024D0007844FFF7A3FD3A46434600F031FE02463A
:1024E0000B46002E504659460CDA00F043FB2246BC
:1024F0002B4600F025FE01B022462B46BDE8F04FEA
:1025000000F052BF00F036FB22462B4600F018FECA
:102510001C4A7A4402EBC603D3E9002300F050FFC3
:1025200022462B4600F04CFF174A7A4402EBC603C2
:10253000D3E9002300F038FF009A002AB8BF81F0E9
:102540000041BDE8F88F0000000010440000F07F5B
:10255000182D4454FB21F93FFB21F9BF0000DC3F5B
:102560000000203E0000F33F0000F03F0000E63F87
:10257000008003400000F83F0000F0BFCE180000CC
:102580008C1800002A180000F21700002DE9F04D09
:102590009446CCF1000423F000464CEA0404594F61
:1025A00046EAD4749A46884621F00042BC4206D8D6
:1025B000454240EA050442EAD474BC4204D9BDE86D
:1025C000F04D6246FFF7C1BEAAF14055A5F17F6507
:1025D00055EA0C040BD0022404EAAA744A4DDFF831
:1025E0002CE144EAD87452EA000B04D00CE0BDE8B8
:1025F000F04DFFF7BBBE002C14BF012CBDE8F08DE1
:10260000022C30D0032C32D056EA0C0B0AD0BE423A
:1026100020D1BA4209D126F0804622F080423346CA
:10262000114617E000291ADB25E0DFF8E4B0FB448F
:10263000002C04BFDBE90001BDE8F08D012C02BFD6
:10264000DBE9000181F00041BDE8F08D022C0AD0E9
:10265000032C0CD0BA4212D1B8F1000F0BDA2A4881
:102660002C49BDE8F08D28462B49BDE8F08D284661
:102670007146BDE8F08D24482849BDE8F08D921BD5
:1026800012153C2AC4BF204F244E10DCBAF1000FB3
:10269000BEBF12F13C0F00273E4608DB624600F049
:1026A00025FB21F00041FFF761FE07460E4694B17D
:1026B000012C08BF86F000460DD0194A194B022C98
:1026C0003846314615D000F07BFE2A46BDE8F04D75
:1026D000114B00F075BE002213463846314600F01B
:1026E0005DFC04BF0220FDF7C0FD38463146BDE861
:1026F000F08D00F065FE2A46BDE8F04D064B00F077
:1027000053BE00000000F07F182D4454FB2109C087
:1027100086170000FB21F9BFFB210940FB21F93F8F
:10272000075C143326A6A13C2DE9F04704468668D1
:10273000406E3146804601F0F1F82768394600F0D6
:1027400055FF05460146304600F0BEFF814639463A
:10275000304600F04BFF294600F0B6FF05464946DB
:10276000404601F0DBF807466169484601F0D6F8BB
:102770000646A169284601F0D1F80546A16A384607
:1027800001F0CCF8294600F031FF314600F02EFF71
:10279000A062BDE8F08700002DE9F0410446C06862
:1027A0002669804601460025304601F0BFF94FF406
:1027B0000007B84203DA3146404601F0B7F9D4F8D1
:1027C000881001F077F816D92069E168064601F013
:1027D000ADF9B84201DB094D04E010F1FF4F01D320
:1027E0004FF07E55D4F88810284601F097F831460E
:1027F00000F0FCFEE060BDE8F0810000000080BF5A
:102800002DE9F04104460F462160C6684FF07E5026
:10281000314601F08BF9616801F080F805463846D1
:10282000314601F07BF8294600F0E0FEA0606060D0
:10283000BDE8F08108B5FDF70FFFFEF7C0FFFEF71A
:102840000DFEFEF729FEFEF77DFE2322764977482E
:10285000FEF7ACFD764E4FF480744FF07E57334652
:102860000022394673480094FEF766FFDFF8C881FE
:102870000023424621466F48FEF773FF6D486F4DB7
:10288000334605610022394690300094FEF754FF2C
:1028900065480023424621469038FEF762FF6249B0
:1028A0006748903908610021664800F0F3F8042178
:1028B000644800F0EFF84FF0000A634FDFF88CB186
:1028C000DFF88C81634CCDF800A0634DE0682946A9
:1028D00001F024F8E06000F05DFE00223B46FFF7C7
:1028E00055FE4FF000525D4B00F02AFC00F010F94D
:1028F00046464146606101F011F881463146606804
:1029000001F00CF8564900F071FE494600F06EFEE9
:10291000014600224748FEF763FE0246042149486B
:10292000FEF72EFE2946E06800F0CEFEE0604D493D
:10293000A06800F0F3FF4FF00049A06048465946F8
:1029400000F0B4F80022484B00F0FAFB05460E46B2
:10295000A06800F01FFE2A46334600F0EFFC11D2BB
:10296000A06800F017FE0E4605464846594600F09E
:102970009DF800223B4600F0E3FB2A46334600F078
:10298000F9F814E04846594600F090F800223B461A
:1029900000F0D6FB05460E46A06800F0FBFD2A4677
:1029A000334600F0E7F800F0B3F800F0F3FD002242
:1029B0003B46FFF7EBFD4FF00052284B00F0C0FB09
:1029C00000F0A6F84146206100F0A8FF1B4900F086
:1029D0000DFE0146144800229038FEF701FE024623
:1029E00000211848FEF7CCFD1E49A06800F06CFEDF
:1029F000A0600098401C0090962811D3A0691B4944
:102A00000068884204D113481C30A06184F800A0FB
:102A1000A06902C8E16002C8A160A061CDF800A071
:102A20000120FDF709FD50E7E401002054020020D9
:102A300000002041C400002017B75139B2CE953DA7
:102A40008479A23D0C0200200000594071A7D23FBA
:102A5000452EC239000000206666863FDCA54C404A
:102A6000CDCCCC3CD7A3703F000059C00000FE4243
:102A700000210164C163816341630163C1618162BB
:102A800041620162C16201614161C1608161C167EE
:102A9000C166704770B50C460546FEF773F92146CE
:102AA0002846BDE87040FEF7B9BA000010B5164BD5
:102AB00021F00042012486B09A4203DC0022134632
:102AC00000941CE0114B9A4208D140B94FF001002C
:102AD000FDF7CBFBFFF73BFC06B010BD03DBFFF7B8
:102AE00031FC06B010BD02AAFFF7D4F800F00100D7
:102AF000A4EB40000DF1080C00909CE80F00FFF7DC
:102B0000E3FA06B010BD0000FB21E93F0000F07FB2
:102B100021F00042A2F16052B2F5801F01F00043A3
:102B200028BFD2F17F6C0BD95FEA001C43EAC202D6
:102B300042EB507018BF704728BF20F0010070476B
:102B4000B2F5801FBCBF184670474FEA410C1CF518
:102B5000001F02D2084600F0A8BF70B500F09AFB33
:102B600000000089FFF7F6BF4FF00040A0F580009D
:102B70007047000010B591EA030F48BF83F000438F
:102B800000F12684841A71EB030C05D2121943EB71
:102B90000C03001B61EB0C01DFF824E14FEA115438
:102BA000A4EB135C1EEA430F18BF9EEA445F73D088
:102BB00023EA0E03DCF1200E21EA045143F48013D2
:102BC00032D322FA0CFE10EB0E0023FA0CFE41EB7E
:102BD0000E01CCF1200E03FA0EFE10EB0E0051F1A7
:102BE0000001B1F5801FCCF1200E32D201EB04516F
:102BF00012FA0EF2BDE8104058BF7047401C38BFB3
:102C00005FEA420218BF7047002814BF20F001009D
:102C100041F100014FEA410313F5001F38BF70472F
:102C2000A1F1C04100F084BB012A43EB0302ACF1E7
:102C3000200CDCF11F0E32BF4FF0000E23FA0CF314
:102C400010EB030041EB0451B4EB115FD0D0A1EBCA
:102C5000045101F5801149085FEA300001EB04518D
:102C60000ED350F1000038BF12FA0EFE08D1BDE8B5
:102C70001040C9E7401C38BF5FEA4202CAD1C3E72F
:102C8000BDE810404FEA410313F5001F38BF7047FD
:102C9000A1F1C04100F04CBB9EEA445F08D011EAAC
:102CA0005E0FBDE8104004BF01F0004100207047F6
:102CB000BDE8104070B500F0EDFA00BF64FBBE3E09
:102CC0000000E0FF02494FF0000000F0A4BF00BF89
:102CD0000000F87F491058BFC1F140415B1058BF58
:102CE000C3F140438B42EFF3008070472DE9C041B0
:102CF00030B4DFF8A0C23CEA111418BF3CEA131448
:102D000000F0EC8081EA03051CEA111444EAD57452
:102D100018BF1CEA131500F0C780A4EB05044FF0A0
:102D2000004545EAC12145EAC32341EA505143EA3F
:102D3000525304F17F74994204F500344FEAC020E5
:102D40004FEAC22208BF904200F09C804FEA136510
:102D50000FF24016765D4FEA134506FB05F7C7F103
:102D6000807706FB07F74FEAD737A7FB0368764261
:102D7000C8F58038A7FB06CE38BFA8F1010807FBCD
:102D800008E64FF0000EA6FB028CE6FB03CEDCF15A
:102D9000000CCEF1004E38BFAEF1010EA6FB0C5870
:102DA0004FF000074FF00005E6FB0E87A1FB08C6B9
:102DB000A0FB07CE16EB0E0645F10005E1FB07650B
:102DC00015F1E04E7EBFA4F580345FEA46066D4102
:102DD00016F1800745F100054FEA17274FEA06660E
:102DE00047EA0567A6F1DE46B6F1805F4FEA152592
:102DF0001FD9384624F0010C05EBC471BCF1FE6FFD
:102E000001EB0C1102D8F0BCBDE8008124425CBF8C
:102E100001F5801E9EEAC47F02D4F0BCBDE80081AB
:102E2000244238D4F0BCA1F1C041BDE8004100F01B
:102E30007FBA4FEAD22242EA43524FEAD323A7FB9A
:102E400002864FEAD02040EA415007FB03661EEAA3
:102E50000E0F4FEAD12105FB026658BFA6EB0056C4
:102E6000B6EB00564FEA520E4EEAC37E18EB0E0E3A
:102E700056EB530EBDD518EB02085E417F1C55F191
:102E80000005B6E74FF480154FF000074FF000063D
:102E90004FF00008ADE7F0BC4FF0000001F1C04179
:102EA00001F00041BDE8008111EA0C1F0CEA131586
:102EB00000D00CE013EA0C1F00F025804FF000005A
:102EC000F0BC81EA030101F00041BDE80081F0BCE3
:102ED000BDE8004181EA030100F02ABAF0BCBDE878
:102EE000004170B500F0D6F9097EFC3E00F007B84D
:102EF00081EA03014FF0000001F00041704781EAD0
:102F0000030100F015BAF0BCBDE800414FF000002D
:102F100021497047FFFDFBF9F7F5F4F2F0EEEDEB18
:102F2000E9E8E6E4E3E1E0DEDDDBDAD8D7D5D4D3C7
:102F3000D1D0CFCDCCCBCAC8C7C6C5C4C2C1C0BF13
:102F4000BEBDBCBBBAB9B8B7B6B5B4B3B2B1B0AF19
:102F5000AEADACABAAA9A8A8A7A6A5A4A3A3A2A1FD
:102F6000A09F9F9E9D9C9C9B9A99999897979695B8
:102F700095949393929191908F8F8E8E8D8C8C8B54
:102F80008B8A8989888887878685858484838382DC
:102F9000828181800000FF070000F87F51EA030C66
:102FA00017D41CF5801F58BFBCF5801F00F10680A8
:102FB000994218BF704708BF9042704707D711F574
:102FC000801F58BF13F5801F19D49942704789425A
:102FD00070471CF5801F08D5BCF5801FF7D58B42C4
:102FE00018BF704708BF824270474FF4001C1CEBAB
:102FF000410F38BF1CEB430F01D28B42704770B5B5
:1030000000F048F9922449004FF000514FF08053EE
:10301000FFF760BE4FEA41034FEA5353A3F58063C5
:10302000D3F11E03C8BFD3F1210C0CDD4FF00042D9
:1030300042EAC12242EA505232FA03FC8CEAE17CB5
:10304000ACEBE1707047102BC4BF0020704703F554
:10305000787CBCF1FF3F04D06FF0004282EA21008F
:10306000704770B500F016F949922480002070472F
:10307000F2E710F0004248BF4042B0FA80F310FA85
:1030800003F10AD0C3F11D0303F580634FEA4150F9
:1030900002EB035202EBD12170474FF00000704762
:1030A000B0FA80F310FA03F10AD0C3F11D0303F55F
:1030B00080634FEA41504FEA035202EBD12170473F
:1030C0004FF000007047000051EA030C17D41CF5C4
:1030D000801F58BFBCF5801F00F10680994218BFC1
:1030E000704708BF9042704707D711F5801F58BF3F
:1030F00013F5801F19D499427047894270471CF517
:10310000801F08D5BCF5801FF7D58B4218BF7047CC
:1031100008BF824270474FF4001C1CEB410F38BFC0
:103120001CEB430F01D28B42704770B500F0B2F830
:10313000922449004FF000514FF08053FFF7CABD71
:10314000DFF848C170B51CEA111E1EBF1CEA13153A
:103150009EEA0C0F95EA0C0F00F06F8081EA0304E1
:1031600023EA4C134EEAD47E21EA4C1141F480113B
:1031700043F48013AE44A1FB024CA0FB0365AEF107
:103180007F7E361955EB0C05A1FB034C4CF1000377
:10319000A0FB021C16EB0C06654153F1000309422B
:1031A00018BF46F0010613F4007F0BD14FEA03313C
:1031B0004FEA0530340341EA155140EA16506FF0EA
:1031C00003020AE04FEAC3214FEAC520F40241EAB4
:1031D000555140EA56506FF0020202EB2E4201EBCD
:1031E000025585EACE710AD05FEA440C18BF24F07C
:1031F000004450F1000041F1000120EAD47040F297
:10320000FE7C624500D270BDA84214BF4FF08044DE
:103210004FF04044002E08BF0024BEF1806FA8BFCD
:10322000A1F1C041BDE8704080F282804FF0000003
:1032300001F1C04101F0004170479EEA0C0F0CEA19
:10324000131518BF95EA0C0F06D04FF0000081EA65
:10325000030E0EF0004170BD00F01CF88900013E25
:1032600000F007B800F009B84FEA430C5FEA5C5C75
:1032700008D081EA030100F05BB84FEA410C5FEA35
:103280005C5CF6D14FF00000014970470000FF0779
:103290000000F87F0EF1020E2EF0030E5EF8046BB4
:1032A000364205D4012A43EB030515F5001F12D859
:1032B000012841EB010C1CF5001F0CD80ED14FEA80
:1032C000D17C15F5001F0CEB4C0C0CF1020C08BF67
:1032D0004CEBD37C04E04FF0080C01E04FEAD37CC8
:1032E0000CEB4C0526FA05F606F00706B6F1040CC1
:1032F00006D20EEB860CBDE870404CF0010C604726
:10330000DFE80CF0090B02024FF000414FF0000023
:10331000A1F5002170BD19461046012851EB0104AA
:1033200018BFD4F5001484BF002001F0004170BD27
:103330000808A0F500114FEA3101704753EA010C6B
:1033400017D41CF5801F58BFBCF5801F00F1068004
:103350008B4218BF704708BF8242704707D713F5EA
:10336000801F58BF11F5801F19D48B4270479B42B4
:1033700070471CF5801F08D5BCF5801FF7D5994212
:1033800018BF704708BF904270474FF4001C1CEBF9
:10339000430F38BF1CEB410F01D2994270470FB465
:1033A0000CBC03BCFFF7C1BE91EA030F10B581F05E
:1033B00000413FF5E7AB83F0004300F009B800009F
:1033C00010B591EA030F48BF83F000433FF5DAAB35
:1033D000841A71EB030C07D212198CF0004C43EBEA
:1033E0000C03001B61EB0C01DFF8A4E14FEA115460
:1033F000A4EB135C1EEA430F18BF9EEA445F00F083
:10340000B08023EA6E03524221EA0451C3EB6E03FB
:1034100038BF5B1EDCF1200E25D322FA0CFE10EB28
:103420000E0043FA0CFE41EB0E01CCF1200E03FA24
:103430000EFE10EB0E0051F10001CCF1200E29D44C
:1034400012FA0EF201EB0451BDE8104058BF70476C
:10345000401C1CBFB2F1004F704700280CBF491C34
:1034600020F00100704712EB020E43EB030218BF7D
:103470004FF0010E4EEA4202ACF1200CDCF11E0EC0
:1034800054D943FA0CFE10EB0E0051F1FF31CCF190
:103490001E0ED5D50EF1010E12FA0EFE404141EB83
:1034A000010101EB445C5FEA5C5C10D910EBDE705B
:1034B00001EB045138BFBEF1004FBDE8104018BF0A
:1034C000704700280CBF491C20F00100704730D223
:1034D0004FEAD42C11F5001124F400641BD0B1FA8A
:1034E00081F20B3AA41AA41ED2F12003914030FAC3
:1034F00003F31943904001EBCC71002C01EB045114
:10350000BDE81040A8BF704701F1C0414FF0000076
:1035100001F000417047B0FA80F310FA03F100D1D6
:1035200010BDE41A173C4805C90AE4E701EB045151
:1035300010BD491001EB0451BDE810404FEA3000C6
:1035400002E04FF0000170474A0008BF0042F8D087
:10355000B2F5001F28BF704701F000414FF0000096
:1035600070479EEA445F07D011EA5E0FBDE8104045
:1035700004BF002100207047BDE8104070B5FFF780
:1035800089FE00BF40DFF63E83F0004110467047E1
:103590000000E0FF43004FEAD30C4FEA3C0C4340ED
:1035A0001FBF40070CF1605113F0FE4F70471CF035
:1035B000006F03D100200CF0004170470CF0004375
:1035C00043EA507010B540EACC0000F028FA00BF82
:1035D000000000924FEA0001FFF7AABE4FF0004141
:1035E0004FF00000A1F500217047000090EA010FA4
:1035F00048BF81F0004100F1A082421A3CBF801A0E
:1036000089184FEAD0524FF07F4C1CEA410FA2EBD1
:10361000D15318BF9CEA026F00F03B804FF0004C82
:103620004CEA00204CEA012121FA03FC10EB0C0CBF
:103630001ED202F1FF325FEA1C2040EBC25038BFBD
:1036400070471CF07F0F4FEA400C18BFBCF17F4F52
:1036500038BF7047C3F12003994008BF20F0010034
:10366000BCF17F4F38BF7047A0F1C04000F01DBAD9
:103670004FEA3C00000A40EBC25028BF1CF0FF0F8D
:103680004FEA400CE6D018BFBCF17F4F38BF7047FF
:10369000EAE79CEA026F05D010EA5C0F08BF00F071
:1036A0000040704710B500F0BAF900BF64FBBE3EA1
:1036B000401058BFC0F14040491058BFC1F14041CF
:1036C0008142EFF3008070474FF47F0C1CEAD01268
:1036D0001EBF1CEAD11392EA0C0F93EA0C0F00F004
:1036E000858090EA010F48BF42F4807240F4000CDC
:1036F00041F400002CF07F4120F07F4000B5814272
:10370000A2EB03020FF2081CACEB504EC0F100001C
:103710009EF800E04FEA4E0E00FB0EFC38BF490059
:103720004FEA2C1C02F5FA020CFB0EF34FEACE1EF8
:103730004FEA112C4FEAC1210EEB635E42EB2242AD
:103740000EFB0CFC4FEA1C5300FB03114FEA112C3B
:103750004FEA01310EFB0CFC4FEADC4C00FB0C1174
:10376000C14228BF09184CEB03335DF804EB10EBA2
:10377000410143EBC250B2F57C0F38BF704729D5E9
:1037800012F0F00F1CBF00F1C04000F00040704785
:10379000008182838485868788898B8C8D8E8F912A
:1037A0009293959697999A9C9D9FA0A2A3A5A7A84E
:1037B000AAACAEB0B2B3B5B7B9BCBEC0C2C5C7C97A
:1037C000CCCED1D4D7D9DCDFE2E6E9ECF0F3F7FADE
:1037D000FE0000004FEA400C0CF1807CBCF17E4FF3
:1037E00028BF7047B0F1C04000F05FB990EA010F08
:1037F0000CEAD11348BF42F48072624538BF63457A
:1038000007D213F47F0F16D080EA010000F00040C9
:10381000704710B500F003F9097EFC3E00F005B8D2
:1038200080EA010000F00040704780EA010000F0EB
:10383000004000F03AB912F47F0F04BF024870470D
:1038400080EA010000F031B90000C07FC10DD1F164
:103850009E0206DB4FEA002343F0004323FA02F006
:103860007047004207D54FEA4001B1F1FE4F02D246
:103870004FF00000704710B500F0D1F84992248055
:10388000002070476FEA200070470000B0FA80F314
:1038900010FA03F2C3F19D030AD0D90501EB1220FF
:1038A000530638BF704700F1010008BF20F0010047
:1038B0007047000050EA010C00F113801CF5000F66
:1038C00058BFBCF5000F01D48842704707D710F5E8
:1038D000000F58BF11F5000F15D488427047894278
:1038E00070471CF5000F04D5BCF5000FF7D58142D9
:1038F00070474FF0807C1CEB400F38BF1CEB410F32
:1039000001D28142704710B500F089F89224490035
:103910004FF000504FF08051FFF7CABE4FF47F0CBC
:103920001CEAD0121EBF1CEAD11392EA0C0F93EAD4
:103930000C0F00F0478090EA010F48BF42F48072FC
:103940004FF0004C4CEA00204CEA012102EB03024C
:10395000A0FB0113A2F50002002918BF43F00103E8
:103960005B0028BF4FEA330342EB22425FEA132C8D
:103970004CEBC2502EBFBCEB436FB2F57C0F7047CF
:103980004FEA036CBCF1004F08BF20F00100B2F514
:103990007C0F38BF70470BD582F0FF0212F5803FD5
:1039A000C8BF704700F1C040D8BF00F0004070476A
:1039B00000F5000C5FEA4C0C48BF7047B0F1C04006
:1039C00000F073B890EA010F0CEAD11348BF42F43B
:1039D0008072624538BF634504D280EA010000F07E
:1039E0000040704710B500F01AF800BF8900013E92
:1039F00000F007B800F009B85FEA410C5FEA1C6C00
:103A000008D080EA010000F050B85FEA400C5FEA9D
:103A10001C6CF6D14FF00040A0F5800070470EF10D
:103A2000020E2EF0030E5EF8044B244204D44FEA3B
:103A30004102B2F17F4F11D84FEA4003B3F17F4FFB
:103A40000CD80ED14FEAD07CB2F17F4F0CEB4C0C6E
:103A50000CF1020C08BF4CEBD17C04E04FF0080CD9
:103A600001E04FEAD17C0CEB4C0324FA03F404F0A0
:103A70000704B4F1040C06D20EEB840CBDE8104030
:103A80004CF0010C6047DFE80CF0070802024FF031
:103A90000040A0F5800010BD0846420018BFD2F1DA
:103AA000807288BF00F0004010BDFF2141EAD05075
:103AB000C005704751EA000C00F113801CF5000F9F
:103AC00058BFBCF5000F01D48142704707D711F5EC
:103AD000000F58BF10F5000F15D48142704789427E
:103AE00070471CF5000F04D5BCF5000FF7D58842D0
:103AF00070474FF0807C1CEB410F38BF1CEB400F30
:103B000001D28842704780EA010081EA000180EA20
:103B10000100FFF7F8BE80F0004090EA010F7FF54A
:103B20006CAD81F0004100F008B8000090EA010F90
:103B300048BF81F000413FF560AD421A04D882F0E1
:103B40000042A0EB020011444FEAD0524FF07F4CEC
:103B50001CEA410FA2EBD15318BF9CEA026F4AD076
:103B60004FF0004C4CEA00204CEA012121FA03FC02
:103B7000B0EB0C0C0FD412F0FE0F36D05FEA4C0005
:103B80001DD5001240EBC25038BF70471CF03F0FEC
:103B900018BF70470BE0A2F101025FEA1C2040EB66
:103BA000C25038BF70471CF07F0F18BF7047C3F179
:103BB0002003994014BF401E20F001007047800888
:103BC0004FEA122308BF7047B0FA80FCA2EB0C0248
:103BD000CCF1280C60FA0CF093EA122F04BF00EB32
:103BE000C25070474FEAC3707047130A5FEADC1097
:103BF00008BF7047F6E79CEA026F04D010EA5C0F3A
:103C000008BF0020704710B5FFF709FF40DFF63E00
:103C100081F0004070470CF00F03092B08BF08200B
:103C200000F059800A2B0BD0082B18BF704708BF33
:103C30001CF0400F0AD04FF000004FF00001704719
:103C40001CF0400F18BF4FF0004070471CF0100FE1
:103C500008D020F0704300F07F4242EAD3014FEADF
:103C60004370704700F0604021F07F4242EA00025A
:103C700001F07F4040EA727070474FF0FF0C4CF447
:103C8000E06C1CEA11531CBF9CEA030C9445C2BFB4
:103C9000DA4201EB02517047002B0DD0BCF1000F4E
:103CA0000FD0002A01F00041A4BF41F0E04141F0F3
:103CB0007F614FF00000704701F000414FF00000BD
:103CC000704750EA01334FF09B0C18BF4CF0806CEA
:103CD0007EF4F8AF70471CF4801F11D01CF4E02F65
:103CE00003D06FEACC31490070474FF04050EFF3FA
:103CF000008222F0704242EA000282F3008870479C
:103D00004FF00000704700000000000000000102BA
:103D10000304060708090000000001020304000074
:103D20004FBB610567ACDD3F182D4454FB21E93FD3
:103D30009BF681D20B73EF3F182D4454FB21F93FC2
:103D4000E2652F227F2B7A3C075C143326A6813C48
:103D5000BDCBF07A8807703C075C143326A6913CF3
:103D6000C4EB98999999C9BF711623FEC671BCBF5F
:103D70006D9A74AFF2B0B3BF9AFDDE522DDEADBFC7
:103D80002F6C6A2C44B4A2BF0D5555555555D53FDF
:103D9000FF8300922449C23F6E204CC5CD45B73FFA
:103DA000513DD0A0660DB13FEB0D76244B7BA93F72
:103DB00011DA22E33AAD903F00000000000000005D
:103DC00000004054FB21F93F3163621A61B4D03DD9
:103DD0000000601A61B4D03D7370032E8A19A33BB2
:103DE0000000002E8A19A33BC14920259A837B3904
:103DF00000000000000000006E83F9A22915444E67
:103E0000D15727FCC0DD34F5999562DB4190433CE6
:103E1000AB6351FE61C5BBDE3A6E24B7E0D24D42C2
:103E2000EA2E49061C92D1091CEB1DFE3EA729B1C2
:103E3000F53582E88444BB2E26709CE9417E5FB450
:103E400039D69139F43953838B5F849C3B28F9BD73
:103E5000FF97F81F0F9805DE8B112FEF1F6D0A5A81
:103E6000CF7E366DB709CB27663F464F2DEA5F9E62
:103E7000C7BA27757BF1E5EBF739073DEA92528A1D
:103E8000B15FFB6B085D8D1F7AFE10111111C13FF0
:103E900037D60684F464963F280356C9226D6D3FD9
:103EA0000165F2F2D844433FA69237A0887E143FC2
:103EB000735360DBCB75F3BEFE41B31BBAA1AB3FBE
:103EC00093846EE9E326823F1583E0FEC8DB573F0B
:103ED00068108D1AF726303FE9A7F0320FB8123F6D
:103EE000D47ABF74702AFB3E083F0008000000200F
:103EF000C400000028010008CC3F0008C4000020D6
:103F000034120000440100080000000000000243D9
:103F100000000000000000000000000000000000A1
:103F20001C00002000000000000000000000C8414C
:103F3000000000000000C8410000C8410000C8C1E6
:103F40000000C8410000C8C10000C8C10000C8414D
:103F50000000C8C10000C8410000803F0000000010
:103F60000000803F0000184100007841000018C1A7
:103F700000007841000018C133336BC100001841C4
:103F800033336BC100001841000078410000FE424D
:103F90000000FE42000000000000000000000000E1
:103FA0000000000000000000000000000000000011
:103FB000000000007F0000007F0000000100000002
:0C3FC00010000000000000000024F400CD
:04000005080000ED02
:00000001FF
